:020000040800F2
:10000000B8DA0020C1010008F1340008592D0008B9
:10001000ED3400086D070008F990000800000000AA
:10002000000000000000000000000000B13E0008D9
:100030003108000800000000913B0008F53F00086F
:10004000DB010008DB010008DB010008DB01000820
:10005000DB010008DB010008DB010008DB01000810
:1000600035080008410800084D080008DB010008B9
:10007000DB010008DB010008DB010008DB010008F0
:10008000DB010008DB010008DB010008DB010008E0
:10009000DB010008DB010008DB010008590800084B
:1000A000DB010008DB010008DB010008DB010008C0
:1000B000DB010008DB010008DB010008DB010008B0
:1000C000DB010008DB010008DB010008DB010008A0
:1000D000DB010008BD490008DB010008DB01000866
:1000E000DB010008DB010008DB010008DB01000880
:1000F000DB010008DB010008DB010008DB01000870
:10010000DB010008DB010008DB010008DB0100085F
:10011000DB010008DB0100087D400008DB0100086E
:10012000DB010008DB010008DB010008DB0100083F
:10013000DB010008DB010008DB010008DB0100082F
:10014000DB010008DB010008DB010008853B00083B
:10015000DB010008DB01000871070008DB01000873
:10016000DB010008DB010008DB010008DB010008FF
:10017000DB010008DB010008DB01000800000000D3
:10018000DB010008DB010008DB010008DB010008DF
:10019000DB010008DB010008DB010008DB010008CF
:1001A000DB010008DB010008DB010008DFF80CD0F0
:1001B00000F018FA004800477D930008B8DA0020E4
:1001C0000648804706480047FEE7FEE7FEE7FEE7F1
:1001D000FEE7FEE7FEE7FEE7FEE7FEE70D4000086C
:1001E000AD01000830B50B46014600202022012455
:1001F00009E021FA02F59D4205D303FA02F5491BF5
:1002000004FA02F52844151EA2F10102F1DC30BD0A
:100210002DE9F05F0546002092469B46884606463B
:10022000814640241BE0284641464746224600F0CE
:10023000FAF953465A46C01A914110D3114618464E
:10024000224600F0E1F92D1A67EB01084F462246DD
:100250000120002100F0D8F917EB00094E41201EC3
:10026000A4F10104DFDC484631462A464346BDE896
:10027000F09F2DE9FE4F804681EA0300C00F0C4637
:10028000009021F0004123F00045B8EB0200A941A5
:1002900005D24046214690461C460B46024623F0B6
:1002A0000040104347D0270DC7F30A00C3F30A519B
:1002B0000290401A019040286BDAC3F3130040F417
:1002C000801B0098924620B10023D2EB030A63EB17
:1002D0000B0B01985946C0F14002504600F094F9CA
:1002E00006460D4650465946019A00F0ACF910EB0F
:1002F00008006141002487EA115284EAE7731A4337
:1003000040D0009A62B3019A012A4FEA075215DCE5
:10031000001B61EB02014FF0004202EA0752CDE9F7
:100320000042001C41F5801132462B4600F0ACF92A
:1003300003B0BDE8F08F40462146F9E7001B61EBB2
:100340000201001C41F5801300185B412018A2F542
:10035000001747EB030140EAD570B6196D4111E073
:100360006D084FEA360645EAC0754FEA0752001B92
:1003700061EB0201001C41F5801149084FEA300091
:100380000019514132462B4603B0BDE8F04F00F052
:100390006CB90098012240000023D0EB020263EB0D
:1003A000E073009821464FEAE074B8EB000061EB7F
:1003B0000401E9E783F000435BE781F0004158E77F
:1003C0002DE9FE4F81EA030404F0004421F00041CE
:1003D00000944FF0000B23F0004350EA01045ED07C
:1003E00052EA03045BD0C3F30A54C1F30A552C4408
:1003F000A4F2F3340194A0FB0254C1F3130141F4BD
:100400008011C3F3130343F4801301FB024400FB88
:10041000034E840A970A44EA815447EA8357A4FBAF
:10042000076802958D0A05FB07854FEA932C04FBAC
:100430000C542705029D4FEA065847EA1637B5EBDC
:1004400008056EEB070C870E920E47EA811742EA09
:100450008312A7FB0201B6EB0B0164EB00042B0D2A
:1004600043EA0C335E1844EB1C50DA465146E7FB76
:100470000201C5F313044FEA0B3343EA14534FEA66
:100480000432019C43EA0603A4F10C040294009C8C
:10049000CDE900B400F0F8F803B0BDE8F08F00201B
:1004A0000146F9E72DE9F04D81EA030404F0004B21
:1004B00021F0004514464FF0000A23F0004150EAB5
:1004C000050220D054EA01021DD0C5F30A570246A6
:1004D000C5F31303C1F31300C1F30A5640F48015AA
:1004E00043F48013A7EB0608101BD64608F2FD382C
:1004F00073EB050002D308F1010801E092185B419B
:10050000B8F1000F03DA00200146BDE8F08D0020AD
:100510004FF48011064684460EE0171B73EB050767
:1005200005D3121B63EB050306434CEA010C490893
:100530004FEA300092185B4150EA0107EDD152EAD0
:10054000030012D082EA040083EA0501084305D0C3
:10055000101BAB4106D20122002306E000224FF01F
:10056000004302E06FF0010253101AEB06004CEB5F
:10057000085110EB0A0041EB0B01BDE8F04D00F013
:1005800074B8C1F30A52C1F3130140F2FF3341F4CE
:1005900080119A4202DA00200146704740F233434C
:1005A0009A42A2F2334202DC524200F03CB800F020
:1005B0002BB8000030B5041E71F1000404DB4FF0CD
:1005C0000044404264EB0101141E73F1000405DB9A
:1005D0001C464FF00043524263EB0403994208BFAC
:1005E000904230BD064C074D06E0E06840F0010344
:1005F00094E8070098471034AC42F6D3FFF7DAFDD1
:100600007CCD00089CCD0008202A04DB203A00FAAB
:1006100002F1002070479140C2F1200320FA03F359
:10062000194390407047202A04DB203A21FA02F057
:100630000021704721FA02F3D040C2F1200291401C
:10064000084319467047202A06DBCB17203A41FAA7
:1006500002F043EAE07306E041FA02F3D040C2F14F
:100660002002914008431946704710B5141E73F1DB
:10067000000408DA401C41F1000192185B411A4362
:1006800001D120F0010010BD2DE9F04D92469B46AE
:1006900011B1B1FA81F202E0B0FA80F22032904654
:1006A000FFF7B2FF04460F4640EA0A0041EA0B0199
:1006B00053465A46084313D0114653EA010019D055
:1006C000C8F140025046FFF7AEFF05460E465046C1
:1006D00059464246FFF798FF084305D0012004E041
:1006E00020463946BDE8F08D0020054346EAE07615
:1006F0002C4337430A986305E40AA0EB0800002264
:10070000FD0A44EA47540A3002D500200146E9E7D1
:10071000010510196941DDE9084500196941BDE885
:10072000F04DA2E740EA01039B0703D009E008C9A6
:10073000121F08C0042AFAD203E011F8013B00F8A6
:10074000013B521EF9D27047D2B201E000F8012BF2
:10075000491EFBD270470022F6E710B513460A4641
:1007600004461946FFF7F0FF204610BDFFE7FEE7FD
:1007700080B582B046F20440C4F20200006840F046
:100780000060E8B1FFE740F27400C2F200000068C8
:1007900001A90AF003FF0198012810D1FFE7019891
:1007A00060B1FFE74EF60450CEF200004FF08051EA
:1007B0000160BFF34F8FBFF36F8FFFE7FFE7FFE7E6
:1007C00046F20440C4F20200006846F20C41C4F252
:1007D0000201086002B080BD82B0019001980078EB
:1007E00010384AF6AB21CAF6AA21A0FB010108097C
:1007F000009000984CF65421C0F60001085C019965
:1008000088650098042807D3FFE70198016804224F
:1008100062F30901416506E00198016840F2FF3288
:1008200091434165FFE70198406D02B070470000B9
:100830007047000080B5042000F078FA80BD000009
:1008400080B5082000F072FA80BD000080B510204D
:1008500000F06CFA80BD000080B54FF4807000F0AD
:1008600065FA80BD85B00490039102920193002047
:1008700000900198B0F5804F22D1FFE704980299CB
:1008800050F82100009000980021CCF6F07108404B
:1008900000900398D0F800C042688368C1684CEAB1
:1008A000021242EA032242EA0141806908430099A8
:1008B0000843009000980499029A41F8220006E04B
:1008C000049802996FF0704240F82120FFE705B0CC
:1008D0007047000083B002900191002000900298C0
:1008E0000199096850F82100009000988021CFF606
:1008F000E071084000900198D0F804C08268C36895
:10090000016942EA0C021A431143426911438269A8
:100910001143C2691143026A1143426A1143826A58
:100920001143C26A1143C26B1143026B1143406B06
:10093000084300990843009001988068082805D171
:10094000FFE7009840F040000090FFE70098029910
:10095000019A126841F822000198406BB0F5801F9F
:1009600011D1FFE70198006868B1FFE701984FF4E3
:100970008071016101980169406B084302990A681E
:1009800010430860FFE703B07047000084B0039095
:1009900002910192002000900398019900EB8100E0
:1009A00040680090009800F0404000900298D0F815
:1009B00000C042688368C1684CEA021242EA03221E
:1009C00042EA014102690023CFF6F07303EB0252C1
:1009D00011434269FE3241EA02618069084300998D
:1009E0000843009000980399019A01EB8201486046
:1009F00003980068C002002813D5FFE703984068F9
:100A000020F470000090029800690021CFF6F07188
:100A100001EB00500099084300900098039948604A
:100A2000FFE704B07047000085B040F26802C2F2F0
:100A3000000203920290019100200090FFE70398CA
:100A40004068012803D1FFE7022004902EE00398BC
:100A500001214160FFE7FFE70398022181600398CD
:100A60000068816841F00101816000200090FFE78B
:100A70000098019988420CD2FFE70298009950F83B
:100A80002100039909680860FFE700980130009091
:100A9000EEE7039801218160FFE7039800214160A0
:100AA000FFE70398006800680490FFE7049805B02A
:100AB0007047000080B582B040F26800C2F20000CA
:100AC0000090009818B9FFE70120019013E000980A
:100AD000806838B9FFE7009800214160009800F075
:100AE0000DF8FFE7009802218160009801218160E4
:100AF00000200190FFE702B080BD000081B00090AF
:100B000001B0704710B584B040F29C10C2F20000F2
:100B10000290029818B9FFE70120039038E002988C
:100B2000806B022803D1FFE70120039030E0029898
:100B30000068016821F0010101600298006800244A
:100B4000046002980068446002980068846002981B
:100B50000068C4600298006804610298006821215E
:100B600041610298FFF738FE01900298806D3F21A5
:100B700001FA00F001998860029804650298846384
:100B8000FFE7029800214163FFE700200390FFE7A1
:100B900004B010BD80B584B040F29C10C2F20000D9
:100BA000029000200190029818B9FFE701200390FD
:100BB0005FE00298406A08B1FFE7FFE70298022170
:100BC00081630298006800680190019848F23F0133
:100BD000CFF21001084001900298D0F804C082685A
:100BE000C368016942EA0C021A4311434269114386
:100BF00082691143C2691143006A0843019908439D
:100C000001900298406A042808D1FFE70298C16A5F
:100C1000006B0843019908430190FFE7019802998E
:100C2000096808600298006840690190019820F006
:100C3000070001900298406A0199084301900298C8
:100C4000406A042806D1FFE70298806A01990843A8
:100C50000190FFE701980299096848610298FFF73F
:100C6000BBFD029800210165029801228263039175
:100C7000FFE704B080BD000080B582B0ADF806008B
:100C8000BDF8060004280AD0FFE708281BD0FFE7BC
:100C900010282CD0FFE7B0F5807F3CD044E008F06E
:100CA0003DFB40F20820C4F24220006850B9FFE743
:100CB00048F2A020C4F242200168B1FA81F149094A
:100CC0000160FFE730E008F029FB40F20C20C4F29D
:100CD0004220006850B9FFE748F2A420C4F2422045
:100CE0000168B1FA81F149090160FFE71CE008F0F1
:100CF00015FB40F21020C4F24220006850B9FFE713
:100D000048F2A820C4F242200168B1FA81F14909F1
:100D10000160FFE7FFE740F22020C4F243200068B3
:100D200008B9FFE7FFE7FFE702B080BD80B582B0FA
:100D3000ADF8060043F61440C4F201000068BDF8A7
:100D4000061008420CD0FFE7BDF8060043F6144138
:100D5000C4F201010860BDF80600FFF78DFFFFE750
:100D600002B080BD87B006900591002003900290EC
:100D700001900490FFE704980F2800F2D481FFE768
:100D80000498012101FA00F0039005980068039986
:100D90000840029002980399884240F0BF81FFE723
:100DA00005984068022805D0FFE70598406812289A
:100DB00026D1FFE7069804996FF0030202EA510179
:100DC0000844006A0190049800F0070080000F2199
:100DD00001FA00F0019921EA0000019005980069EC
:100DE000049901F0070189008840019908430190A6
:100DF00001980699049B02EA530211440862FFE736
:100E000006980068019004984000032101FA00F060
:100E1000019921EA000001900598406800F0030064
:100E20000499490088400199084301900198069966
:100E300008600598406801280FD0FFE705984068D2
:100E400002280AD0FFE705984068112805D0FFE77F
:100E50000598406812282FD1FFE706988068019016
:100E600004984000032101FA00F0019921EA0000F2
:100E700001900598C0680499490088400199084389
:100E8000019001980699886006984068019004983E
:100E9000012101FA00F0019921EA00000190059872
:100EA0004068C0F3001004998840019908430190FC
:100EB000019806994860FFE70698C0680190049879
:100EC0004000032101FA00F0019921EA000001909D
:100ED0000598806804994900884001990843019069
:100EE00001980699C86005984068C000002840F144
:100EF0001481FFE7FFE70020009043F64400C4F2AE
:100F00000200016841F480410160006800F4804003
:100F100000900098FFE7049820F0030043F60801D2
:100F2000C4F2010140580190049800F003008000D1
:100F30000F2101FA00F0019921EA000001900698C2
:100F40000021C4F20201884202D1FFE7002061E0E3
:100F5000069840F20041C4F20201884202D1FFE744
:100F6000012056E0069840F60001C4F202018842D2
:100F700002D1FFE702204BE0069840F60041C4F2A0
:100F80000201884202D1FFE7032040E0069841F2C7
:100F90000001C4F20201884202D1FFE7042035E0DB
:100FA000069841F20041C4F20201884202D1FFE7F3
:100FB00005202AE0069841F60001C4F202018842A9
:100FC00002D1FFE706201FE0069841F60041C4F277
:100FD0000201884202D1FFE7072014E0069842F29E
:100FE0000001C4F20201884202D1FFE7082009E0B3
:100FF000069942F20042C4F202020A20914208BF5E
:101000000920FFE7FFE7FFE7FFE7FFE7FFE7FFE76D
:10101000FFE7FFE7C0B2049901F0030189008840AF
:101020000199084301900198049921F0030143F6C6
:101030000802C4F20102885043F60040C4F20100E5
:10104000006801900298019921EA0000019005983A
:101050004068C003002805D5FFE7029801990843BE
:101060000190FFE7019843F60041C4F201010860D6
:1010700043F60440C4F2010000680190029801990F
:1010800021EA00000190059840688003002805D5FA
:10109000FFE70298019908430190FFE7019843F6A2
:1010A0000441C4F20101086043F60840C4F20100A3
:1010B000006801900298019921EA000001900598CA
:1010C0004068C002002805D5FFE70298019908434F
:1010D0000190FFE7019843F60841C4F2010108605E
:1010E00043F60C40C4F20100006801900298019997
:1010F00021EA00000190059840688002002805D58B
:10110000FFE70298019908430190FFE7019843F631
:101110000C41C4F201010860FFE7FFE7FFE7049814
:101120000130049027E607B07047000083B041F219
:101130000041C4F202010291ADF8060000200090C7
:10114000009828B1FFE7BDF806000299886105E024
:10115000BDF80600000402998861FFE703B07047FC
:101160004DF29850C2F20000006870474DF298505E
:10117000C2F20000016801310160704780B543F69A
:101180000040C4F20200016841F40071016001688E
:1011900041F480610160016841F4807101600520C3
:1011A00000F042F800F004F800F01AF880BD0000EA
:1011B00080B582B00F20019000F0CAFA44F6D351F6
:1011C000C1F26201A0FB0101880901F02FFA019927
:1011D0004FF0FF30002200F011F802B080BD000097
:1011E00081B000200090009801B0704780B582B0B7
:1011F0000190019802F03EFC02B080BD10B584B0B1
:101200000390029101920020009002F077FC009080
:10121000039C00980299019A02F03EFC0146204688
:1012200002F074FC04B010BD80B582B0019001984A
:1012300002F08AFC02B080BD80B588B00020029028
:10124000FFE70020019043F64000C4F2020001686D
:1012500041F080510160006800F0805001900198D9
:10126000FFE74FF480300590059890FAA0F00490C5
:101270000498B0FA80F00021C4F20E21012241F856
:101280002020FFF76DFF0290FFE747F20400C4F251
:101290000000006800F48030B0F5803F0CD0FFE71C
:1012A000FFF75EFF0299401AB0F57A7F03D9FFE796
:1012B000032003902EE0E8E74FF4003007900798F2
:1012C00090FAA0F006900698B0FA80F00021C4F2DF
:1012D0000E21012241F82020FFF742FF0290FFE794
:1012E00047F20400C4F20000006800F40030B0F5DA
:1012F000003F0CD0FFE7FFF733FF0299401AB0F52B
:101300007A7F03D9FFE70320039003E0E8E700209A
:101310000390FFE7039808B080BD000080B584B05B
:1013200002900520019000200090019843F60041B2
:10133000C4F20201096801F00F01884240F2EE8018
:10134000FFE7019843F60041C4F202010870086803
:1013500000F00F000199884203D0FFE701200390BD
:10136000F3E102980068800700280CD5FFE743F6F8
:101370000800C4F20200016821F0F001029A9268AC
:1013800011430160FFE702980068C007002800F0E1
:10139000C480FFE702984068012810D1FFE743F6B8
:1013A0000000C4F20200006800F400300021B1EB3C
:1013B000504F03D1FFE701200390C6E12AE00298D5
:1013C0004068022805D0FFE702984068032810D142
:1013D000FFE743F60000C4F20200006800F000706E
:1013E0000021B1EB506F03D1FFE701200390ACE186
:1013F0000FE043F60000C4F20200006800F00200B3
:101400000021B1EB500F03D1FFE7012003909CE1D5
:10141000FFE7FFE743F60800C4F20200016821F08D
:101420000301029A526811430160FFF799FE009090
:1014300002984068012819D1FFE7FFE743F608004A
:10144000C4F20200006800F00C0004280DD0FFE791
:10145000FFF786FE0099401A41F28931884203D392
:10146000FFE70320039070E1E8E755E00298406849
:10147000022819D1FFE7FFE743F60800C4F2020093
:10148000006800F00C0008280DD0FFE7FFF768FEA9
:101490000099401A41F28931884203D3FFE70320C3
:1014A000039052E1E8E736E002984068032819D13A
:1014B000FFE7FFE743F60800C4F20200006800F00F
:1014C0000C0003280DD0FFE7FFF74AFE0099401AF1
:1014D00041F28931884203D3FFE70320039034E1CE
:1014E000E8E717E0FFE743F60800C4F202000068EF
:1014F00010F00C0F0DD0FFE7FFF732FE0099401AF5
:1015000041F28931884203D3FFE7032003901CE1B5
:10151000E9E7FFE7FFE7FFE7FFE7ECE00298006895
:10152000800700280CD5FFE743F60800C4F202004C
:10153000016821F0F001029A926811430160FFE70F
:1015400002980068C007002800F0C480FFE70298F6
:101550004068012810D1FFE743F60000C4F2020002
:10156000006800F400300021B1EB504F03D1FFE7D9
:1015700001200390E9E02AE002984068022805D0A3
:10158000FFE702984068032810D1FFE743F6000008
:10159000C4F20200006800F000700021B1EB506F4F
:1015A00003D1FFE701200390CFE00FE043F60000F6
:1015B000C4F20200006800F002000021B1EB500FFD
:1015C00003D1FFE701200390BFE0FFE7FFE743F609
:1015D0000800C4F20200016821F00301029A526877
:1015E00011430160FFF7BCFD00900298406801289C
:1015F00019D1FFE7FFE743F60800C4F202000068D4
:1016000000F00C0004280DD0FFE7FFF7A9FD0099BA
:10161000401A41F28931884203D3FFE70320039047
:1016200093E0E8E755E002984068022819D1FFE707
:10163000FFE743F60800C4F20200006800F00C0067
:1016400008280DD0FFE7FFF78BFD0099401A41F203
:101650008931884203D3FFE70320039075E0E8E770
:1016600036E002984068032819D1FFE7FFE743F608
:101670000800C4F20200006800F00C0003280DD03E
:10168000FFE7FFF76DFD0099401A41F2893188426A
:1016900003D3FFE70320039057E0E8E717E0FFE7F5
:1016A00043F60800C4F20200006810F00C0F0DD0E1
:1016B000FFE7FFF755FD0099401A41F28931884252
:1016C00003D3FFE7032003903FE0E9E7FFE7FFE7ED
:1016D000FFE7FFE7019843F60041C4F202010870FA
:1016E000086800F00F000199884203D0FFE701204D
:1016F00003902AE0FFE702980068400700280CD515
:10170000FFE743F60800C4F20200016821F4E0514B
:10171000029AD26811430160FFE70298006800074F
:1017200000280DD5FFE743F60800C4F20200016867
:1017300021F46041029A126941EAC2010160FFE7A7
:10174000FFF736FD00200390FFE7039804B080BD4B
:1017500080B582B000F05CF843F60801C4F20201E3
:10176000096801F0F001F0220192019A92FAA2F2C6
:101770000092009AB2FA82F2D1404CF64422C0F6AE
:101780000002515CC84040F21801C2F2000108603A
:10179000086802B080BD000080B582B0FFF7D8FFB6
:1017A00043F60801C4F20201096801F4E0514FF464
:1017B000E0520192019A92FAA2F20092009AB2FAD1
:1017C00082F2D1404CF64422C0F60002515CC8407F
:1017D00002B080BD80B582B0FFF7BAFF43F60801C2
:1017E000C4F20201096801F460414FF460420192C1
:1017F000019A92FAA2F20092009AB2FA82F2D140D1
:101800004CF64422C0F60002515CC84002B080BDD4
:101810008AB00020039002900190009043F60800E7
:10182000C4F20200006800F00C0030B1FFE70428A9
:1018300009D0FFE708280CD06AE042F20040C0F26D
:10184000F40000906AE041F60030C0F2B70000906A
:1018500064E043F60400C4F20200016801F03F01B5
:1018600003910068400200281BD5FFE7039841F66A
:101870000031C0F2B701B1FBF0F043F60401C4F24D
:101880000201096847F6C07211400592059A92FA62
:10189000A2F20492049AB2FA82F2D1404843029032
:1018A0001AE0039842F20041C0F2F401B1FBF0F0FB
:1018B00043F60401C4F20201096847F6C072114000
:1018C0000792079A92FAA2F20692069AB2FA82F266
:1018D000D14048430290FFE743F60400C4F20200FF
:1018E000006800F440304FF440310991099991FAB1
:1018F000A1F108910899B1FA81F1C840022101EBE8
:101900004000019002980199B0FBF1F0009005E0D1
:1019100042F20040C0F2F4000090FFE700980AB0E5
:101920007047000080B58EB00290002001900298B0
:101930000068C007002800F09E80FFE743F608001B
:10194000C4F20200006800F00C00042813D0FFE786
:1019500043F60800C4F20200006800F00C000828FA
:101960001DD1FFE743F60400C4F202000068400204
:10197000002814D5FFE743F60000C4F20200006817
:1019800000F400300021B1EB504F07D0FFE7029880
:10199000406818B9FFE701200390BFE26AE043F610
:1019A0000200C4F2020000210170FFF7D9FB019090
:1019B000FFE743F60000C4F20200006800F40030C4
:1019C0000021B1EB504F0DD0FFE7FFF7C9FB0199A4
:1019D000401A41F28931884203D3FFE70320039084
:1019E0009CE2E6E70298406843F60201C4F2020175
:1019F000087002984068F0B1FFE7FFF7B1FB019073
:101A0000FFE743F60000C4F20200006800F4003073
:101A10000021B1EB504F0DD1FFE7FFF7A1FB01997A
:101A2000401A41F28931884203D3FFE70320039033
:101A300074E2E6E71DE0FFF793FB0190FFE743F652
:101A40000000C4F20200006800F400300021B1EB95
:101A5000504F0DD0FFE7FFF783FB0199401A41F289
:101A60008931884203D3FFE70320039056E2E6E77B
:101A7000FFE7FFE7FFE7029800688007002840F1D2
:101A8000A580FFE743F60800C4F20200006810F0EA
:101A90000C0F13D0FFE743F60800C4F20200006801
:101AA00000F00C00082834D1FFE743F60400C4F22C
:101AB00002000068400200282BD4FFE743F6000034
:101AC000C4F20200006800F002000021B1EB500FE8
:101AD00008D0FFE70298C068012803D0FFE7012083
:101AE00003901BE243F60000C4F20200016821F0FB
:101AF000F801029A1269F8230593059B93FAA3F360
:101B00000493049BB3FA83F39A4011430160FFE707
:101B10005BE00298C068B0B3FFE70020C4F2472042
:101B200001210160FFF71CFB0190FFE743F6000075
:101B3000C4F20200006800F002000021B1EB500F77
:101B40000BD1FFE7FFF70CFB0199401A652803D37F
:101B5000FFE703200390E1E1E8E743F60000C4F269
:101B60000200016821F0F801029A1269F823079334
:101B7000079B93FAA3F30693069BB3FA83F39A4069
:101B80001143016020E00020C4F2472000210160E1
:101B9000FFF7E6FA0190FFE743F60000C4F2020007
:101BA000006800F002000021B1EB500F0BD0FFE7FE
:101BB000FFF7D6FA0199401A652803D3FFE70320FF
:101BC0000390ABE1E8E7FFE7FFE7FFE70298006873
:101BD0000007002849D5FFE70298406910B3FFE7E6
:101BE00040F68060C4F2472001210160FFF7B8FA97
:101BF0000190FFE743F67400C4F20200006800F0B1
:101C000002000021B1EB500F0BD1FFE7FFF7A8FA5C
:101C10000199401A652803D3FFE7032003907DE173
:101C2000E8E721E040F68060C4F24720002101602F
:101C3000FFF796FA0190FFE743F67400C4F2020042
:101C4000006800F002000021B1EB500F0BD0FFE75D
:101C5000FFF786FA0199401A652803D3FFE70320AE
:101C600003905BE1E8E7FFE7FFE7029800684007C1
:101C7000002840F19D80FFE7FFE70020009043F639
:101C80004000C4F20200016841F080510160006828
:101C900000F0805000900098FFE747F20000C4F287
:101CA0000000016841F480710160FFF759FA01906A
:101CB000FFE747F20000C4F200000068C0050028FA
:101CC0000BD4FFE7FFF74CFA0199401A652803D3BC
:101CD000FFE70320039021E1EBE743F67000C4F235
:101CE000020000210170FFF73BFA0190FFE743F685
:101CF0007000C4F20200006800F002000021B1EBA5
:101D0000500F0DD0FFE7FFF72BFA0199401A41F26F
:101D10008931884203D3FFE703200390FEE0E6E722
:101D20000298806843F67001C4F2020108700298BC
:101D30008068F0B1FFE7FFF713FA0190FFE743F681
:101D40007000C4F20200006800F002000021B1EB54
:101D5000500F0DD1FFE7FFF703FA0199401A41F246
:101D60008931884203D3FFE703200390D6E0E6E7FA
:101D70001DE0FFF7F5F90190FFE743F67000C4F2AC
:101D80000200006800F002000021B1EB500F0DD0FE
:101D9000FFE7FFF7E5F90199401A41F289318842DE
:101DA00003D3FFE703200390B8E0E6E7FFE7FFE790
:101DB00002988069002800F0AE80FFE743F6080033
:101DC000C4F20200006800F00C00082800F09F80B8
:101DD000FFE702988069022877D1FFE76020C4F20C
:101DE000472000210160FFF7BBF90190FFE743F6B0
:101DF0000000C4F20200006800F000700021B1EBA6
:101E0000506F0BD0FFE7FFF7ABF90199401A652837
:101E100003D3FFE70320039080E0E8E70298C1695D
:101E2000026A406A114347F6C0720992099A92FA0F
:101E3000A2F20892089AB2FA82F2904008430299FC
:101E4000896A4FF0FF3202EB51014FF440320B929E
:101E50000B9A92FAA2F20A920A9AB2FA82F291408C
:101E600008430299C96A4FF070620D920D9A92FA76
:101E7000A2F20C920C9AB2FA82F29140084343F615
:101E80000401C4F2020108606020C4F2472001216D
:101E90000160FFF765F90190FFE743F60000C4F227
:101EA0000200006800F000700021B1EB506F0BD110
:101EB000FFE7FFF755F90199401A652803D3FFE7BB
:101EC000032003902AE0E8E720E06020C4F24720E6
:101ED00000210160FFF744F90190FFE743F600009D
:101EE000C4F20200006800F000700021B1EB506FF6
:101EF0000BD0FFE7FFF734F90199401A652803D3A7
:101F0000FFE70320039009E0E8E7FFE702E0012094
:101F1000039003E0FFE700200390FFE703980EB073
:101F200080BD000080B582B040F2FC00C2F200002B
:101F30000090009818B9FFE70120019045E0009853
:101F4000406D38B9FFE7009800210165009800F066
:101F50003FF8FFE70098022141650098006801689A
:101F600021F0400101600098D0F800C04268836809
:101F7000C1681A43114302691143426911438269DE
:101F800002F400721143C2691143026A1143806A6C
:101F90000843CCF800000098418B01F0040102686E
:101FA000406A0843506000980168C06A0861009860
:101FB0000068C16921F40061C16100980021816558
:101FC0000098012242650191FFE702B080BD000048
:101FD00010B58AB00990FFE70020039043F6300067
:101FE000C4F20200016841F040010160006800F0A5
:101FF000400003900398FFE7FFE70020029043F6BC
:102000003000C4F20200016841F002010160006882
:1020100000F0020002900298FFE7FFE70020019025
:1020200043F64400C4F20200016841F480510160AB
:10203000006800F4805001900198FFE74FF4E070D1
:1020400004900120059006900320079041F60000BF
:10205000C4F2020004AC2146FEF784FE382004904E
:10206000022005900520089040F20040C4F20200D2
:102070002146FEF777FE0AB010BD000080B58AB099
:1020800040F2FC02C2F20002089207900691012081
:10209000ADF816004FF47A70049000200290019081
:1020A0000898406D02900298012805D0FFE7029839
:1020B000222840F02F82FFE7079838B1FFE7069803
:1020C00020B1FFE7BDF8160018B9FFE7012009901D
:1020D00023E2FFE70898006D012803D1FFE7022003
:1020E00009901AE2089801210165FFE7FFE70898C7
:1020F000406D012804D1FFE7089832214165FFE7D0
:102100000898002181650698089A9063BDF816002A
:10211000089A9087BDF81600089AD0870798089A01
:102120001063BDF81600089A9086BDF81600089A4C
:10213000D086089881640898C1640898806AB0F5D0
:10214000005F0FD1FFE7FFE708980068016821F4FE
:102150000051016008980068016841F40051016075
:10216000FFE7FFE708980068006800F0400040289B
:1021700007D0FFE708980068016841F0400101605E
:10218000FFE70898C068B0F5006F40F0B280FFE745
:102190000898406858B1FFE708984068B0F5827F1A
:1021A00013D1FFE70898C08E01280ED1FFE70898E9
:1021B0000168006B0088C8600898016B02310163F8
:1021C0000898C18E0139C186FFE70898C08E38BBD8
:1021D000FFE70898806AB0F5005F07D1FFE708982D
:1021E0000068016841F480510160FFE70898049B92
:1021F0000121002201F02CFD18B1FFE70320099016
:102200008BE108980068C0680899896B0880089875
:10221000816B023181630898C18F0139C18767E002
:10222000FFE70898C08E012843DBFFE70898049B6E
:102230000221002201F00CFD18B1FFE703200990F4
:102240006BE108980168006B0088C8600898016B12
:10225000023101630898C18E0139C1860898C08E89
:1022600068B9FFE70898806AB0F5005F07D1FFE71B
:1022700008980068016841F480510160FFE7089800
:10228000049B0121002201F0E3FC18B1FFE70320C9
:10229000099042E108980068C0680899896B088035
:1022A0000898816B023181630898C18F0139C18719
:1022B000B7E708984068D0B9FFE70898049B012168
:1022C000002201F0C5FC18B1FFE70320099024E1CA
:1022D00008980068C0680899896B08800898816B25
:1022E000023181630898C18F0139C187FFE7FFE799
:1022F000A6E00898406858B1FFE708984068B0F534
:10230000827F12D1FFE70898C08E01280DD1FFE728
:102310000898016B4A1C0263087808990968C8602C
:102320000898C18E0139C186FFE70898C08E18BB96
:10233000FFE70898806AB0F5005F07D1FFE70898CB
:102340000068016841F480510160FFE70898049B30
:102350000121002201F07CFC18B1FFE70320099065
:10236000DBE008980068C0680899896B08700898D5
:10237000C18F0139C18762E0FFE70898C08E01284C
:1023800040DBFFE70898049B0221002201F060FC7B
:1023900018B1FFE703200990BFE00898016B4A1CC1
:1023A0000263087808990968C8600898C18E0139E5
:1023B000C1860898C08E68B9FFE70898806AB0F5B2
:1023C000005F07D1FFE708980068016841F4805179
:1023D0000160FFE70898049B0121002201F038FC0E
:1023E00018B1FFE70320099097E008980068C068DB
:1023F00008998A6B531C8B6310700898C18F013940
:10240000C187BAE708984068C0B9FFE70898049BFD
:102410000121002201F01CFC18B1FFE70320099004
:102420007BE008980068C06808998A6B531C8B632E
:1024300010700898C18F0139C187FFE7FFE7FFE7F8
:102440000898806AB0F5005F18D1FFE70898049BF0
:102450000121002201F0FCFB40B1FFE70898816DEB
:1024600041F0020181650320099056E00898006858
:10247000C068ADF80E00BDF80E00FFE70898049B99
:102480008021012201F0E4FB40B1FFE70898816D53
:1024900041F020018165032009903EE00898012168
:1024A0004165089800688068C0F3001001900898A2
:1024B000806AB0F5005F25D1FFE7019810B3FFE710
:1024C0000898816D41F0020181650898806AB0F535
:1024D000005F0FD1FFE7FFE708980068016821F46B
:1024E0000051016008980068016841F400510160E2
:1024F000FFE7FFE7FFE7089800210165FFE70120FC
:1025000009900AE0FFE7089800210165FFE7002035
:10251000099002E002200990FFE70AB080BD0000A8
:1025200080B584B0029001910092029818B9FFE73B
:102530000120039028E00298C06C38B9FFE70298A8
:1025400000218164029800F021F8FFE7029951F818
:10255000080BFEF7BFF9029A019910689268FEF71E
:1025600015FA029B009958689A681B6BFEF77AF976
:1025700002980168806851F8202042F0010241F879
:10258000202000200390FFE704B080BD10B586B086
:1025900005904FF6337000900220019003200390C5
:1025A0000C20049040F60040C4F202006C46214624
:1025B000FEF7D8FB4FF68370009041F20000C4F2A2
:1025C00002002146FEF7CEFB4FF23F00009041F2A1
:1025D0000040C4F202002146FEF7C4FB40F23F4037
:1025E000009041F60000C4F202002146FEF7BAFB5B
:1025F00006B010BD81B0042000900098042809D1D5
:10260000FFE74EF21000CEF20000016841F0040135
:10261000016008E04EF21000CEF20000016821F0E7
:1026200004010160FFE701B07047000080B582B08F
:102630000190019801F0B6FC02B080BD81B000901D
:1026400001B0704781B0009001B0704781B0009038
:1026500001B0704780B582B040F25C10C2F2000059
:10266000019001980068006900F002000021B1EBC0
:10267000500F28D0FFE701980068C06800F0020002
:102680000021B1EB500F1DD0FFE7019800686FF0FB
:10269000020101610198012181610198006880694E
:1026A000800720B1FFE70198FFF7D0FF06E001980F
:1026B00000F012F9019800F013F9FFE701980021EA
:1026C0008161FFE7FFE701980068006900F00400FE
:1026D0000021B1EB900F29D0FFE701980068C06896
:1026E00000F004000021B1EB900F1ED0FFE701982D
:1026F00000686FF004010161019802218161019875
:102700000068806910F4407F04D0FFE70198FFF76C
:102710009DFF06E0019800F0DFF8019800F0E0F876
:10272000FFE7019800218161FFE7FFE7019800685A
:10273000006900F008000021B1EBD00F28D0FFE7BE
:1027400001980068C06800F008000021B1EBD00FCC
:102750001DD0FFE7019800686FF008010161019842
:102760000421816101980068C069800720B1FFE7FA
:102770000198FFF76BFF06E0019800F0ADF80198B3
:1027800000F0AEF8FFE7019800218161FFE7FFE765
:1027900001980068006900F010000021B1EB101FE3
:1027A00029D0FFE701980068C06800F01000002100
:1027B000B1EB101F1ED0FFE7019800686FF0100109
:1027C000016101980821816101980068C06910F4D5
:1027D000407F04D0FFE70198FFF738FF06E001983B
:1027E00000F07AF8019800F07BF8FFE701980021EB
:1027F0008161FFE7FFE7019800680069C00780B1C9
:10280000FFE701980068C068C00748B1FFE701987A
:1028100000686FF001010161019800F065F8FFE7C1
:10282000FFE7019800680069C0B20021B1EBD01F3A
:1028300013D0FFE701980068C068C0B20021B1EB77
:10284000D01F09D0FFE7019800686FF08001016197
:102850000198FFF7F3FEFFE7FFE7019800680069C2
:1028600000F040000021B1EB901F14D0FFE7019869
:102870000068C06800F040000021B1EB901F09D053
:10288000FFE7019800686FF040010161019800F0D6
:102890002FF8FFE7FFE701980068006900F02000CB
:1028A0000021B1EB501F14D0FFE701980068C06809
:1028B00000F020000021B1EB501F09D0FFE7019884
:1028C00000686FF0200101610198FFF7BBFEFFE790
:1028D000FFE702B080BD000081B0009001B07047FA
:1028E00081B0009001B0704781B0009001B0704796
:1028F00081B0009001B0704781B0009001B0704786
:1029000080B588B040F2F810C2F2000007900020B5
:102910000690059007980068006800F00100069096
:1029200007980068C06800F4807005900698B0B100
:10293000FFE7059898B1FFE7FFE7002004900798AC
:102940000068006804900798006840680490049844
:10295000FFE70798016C41F001010164FFE7079868
:1029600000680068C0F3400006900798006840695E
:1029700000F0010005900698B0B1FFE7059898B106
:10298000FFE7FFE7002003900798006800680390C6
:1029900007980068406803900398FFE70798016C68
:1029A00041F004010164FFE7079800680068C0F384
:1029B0008000069007980068406900F001000590CB
:1029C0000698B0B1FFE7059898B1FFE7FFE7002050
:1029D00002900798006800680290079800684068B5
:1029E00002900298FFE70798016C41F00201016430
:1029F000FFE7079800680068C0F3C00006900798DA
:102A00000068406900F0010005900698B0B1FFE74A
:102A1000059898B1FFE7FFE700200190079800684C
:102A20000068019007980068406801900198FFE7EE
:102A30000798016C41F008010164FFE707980068FE
:102A40000068C0F34010069007980068C06800F066
:102A500020000590069838B1FFE7059820B1FFE700
:102A6000079801F0A3FDFFE7079800680068C0B26F
:102A7000C009069007980068C06800F080000590C3
:102A8000069838B1FFE7059820B1FFE7079801F0F5
:102A900041FFFFE7079800680068C0F380100690C8
:102AA00007980068C06800F040000590069838B1AB
:102AB000FFE7059820B1FFE7079801F05BFDFFE70E
:102AC0000798006C38B1FFE707980121C1630798A8
:102AD000FFF712FFFFE708B080BD000080B582B0AD
:102AE00040F2F810C2F200000090009818B9FFE719
:102AF0000120019036E00098806908B1FFE700E00E
:102B0000FFE70098C06B38B9FFE7009800218163A8
:102B1000009800F029F8FFE700980221C1630098AF
:102B20000068C16821F40051C160009801F0C0FD47
:102B300000980068016921F49041016100980068E3
:102B4000416921F02A01416100980068C16841F49F
:102B50000051C16000980021016400980122C26305
:102B60000191FFE702B080BDB0B588B0079007982B
:102B7000006841F20001C4F20101884244D1FFE73C
:102B8000FFE70020019043F63000C4F20200016824
:102B900041F001010160006800F00100019001981E
:102BA000FFE7FFE70020009043F64400C4F2020074
:102BB000016841F010010160006800F01000009011
:102BC0000098FFE74FF4007002900220039001216B
:102BD00004910590072006900024C4F2020402AD7F
:102BE00020462946FEF7BEF84FF48060029020464A
:102BF0002946FEF7B7F82520FEF7F8FA252001212F
:102C00000022FEF7FBFAFFE708B0B0BD81B00090EC
:102C100001B0704781B0009001B0704781B0009062
:102C200000984069806880B201B0704782B001901E
:102C30000198D0F8CC00006800900098C0F34140A3
:102C400002B0704782B001908DF8031001989DF892
:102C5000031000EB8100D0F8CC0302B070470000F5
:102C600080B584B00390029100208DF8070003998D
:102C7000C1F810038DF80700FFE79DF807000E2844
:102C80001DDCFFE703989DF8071000EB8100002191
:102C9000C0F8181303989DF8072000EB8200C0F8D5
:102CA000541303989DF8072000EB8200C0F890139E
:102CB000FFE79DF8070001308DF80700DDE7039876
:102CC0000821A0F80E140398029905F05FF8039804
:102CD00004F06AFB039804F005FA039805F002F982
:102CE000039804F09DFA039804F0CCFB04B080BD77
:102CF00081B000900098D0F8100301B07047000038
:102D000081B000900098D0F8140301B07047000023
:102D100080B582B00190019805F016F802B080BD30
:102D200080B582B001908DF8031001989DF80310D2
:102D300000EB81000021C0F8CC1301989DF803201E
:102D400000EB4210C0F81C1401989DF8031004F029
:102D500033FE02B080BD0000FFE7FEE780B586B01D
:102D6000FFE70020009043F63000C4F20200016843
:102D700041F010010160006800F010000090009820
:102D8000FFE71C2001900020C1F2210002900120E9
:102D900003900320049041F20000C4F2020001A954
:102DA000FDF7E0FF082002210022FEF727FA0820A5
:102DB000FEF71CFA092002210022FEF71FFA092063
:102DC000FEF714FA0A2002210022FEF717FA0A2061
:102DD000FEF70CFA06B080BD10B582B04FF6FF7159
:102DE000ADF806100024009440F63820C2F200002E
:102DF000007800284FF6FF7018BF40F23F1040F6F1
:102E00003A22C2F200021278002A18BF40F23F11A3
:102E100000F02EFA0094FFE70098C00A4A280BD869
:102E2000FFE7BDF806008021C6F600410880FFE7F5
:102E3000009801300090EFE702B010BDF0B593B0FC
:102E4000FFE70020069043F63800C4F20200016854
:102E500041F001010160006800F001000690069851
:102E6000FFE7FFE70020059043F63000C4F20200C0
:102E7000016841F002010160006800F00200059065
:102E80000598FFE7FFE70020049043F63000C4F206
:102E90000200016841F008010160006800F00800CC
:102EA00004900498FFE7FFE70020039043F630000A
:102EB000C4F20200016841F010010160006800F0F6
:102EC000100003900398FFE7FFE70020029043F60D
:102ED0003000C4F20200016841F020010160006886
:102EE00000F0200002900298FFE7FFE70020019029
:102EF00043F63000C4F20200016841F04001016075
:102F0000006800F0400001900198FFE74FF4805600
:102F10000E9602200F90032711970C20129041F675
:102F20000005C4F202050EAC28462146FDF71AFF43
:102F30004FF633700E9040F60040C4F20200214676
:102F4000FDF710FF4FF683700E9041F20000C4F2BF
:102F500002002146FDF706FF4FF23F000E9041F2BE
:102F60000040C4F202002146FDF7FCFE40F23F4063
:102F70000E9028462146FDF7F5FE4FF400400E90D6
:102F800001200F90119740F20040C4F20200214648
:102F9000FDF7E8FE40F64420C2F200004FF0204169
:102FA000016040F20411CAF2000141600621816013
:102FB0000021C1600161102242618161C161016231
:102FC00041628662C162016341638163C16341649E
:102FD0000791089109910A910B910C910D9107A904
:102FE0000A46FFF79DFA13B0F0BD000080B5FFF769
:102FF00025FFAFF30080F92000F08AF9002000F0EF
:103000007BF9082000F078F9C02000F081F9192040
:1030100000F072F91A2000F06FF9C12000F078F981
:10302000452000F069F9002000F066F9C22000F0A8
:103030006FF9332000F060F9C52000F069F9002035
:1030400000F05AF9282000F057F9B12000F060F99B
:10305000A02000F051F9112000F04EF9B42000F04A
:1030600057F9022000F048F9B62000F051F900208D
:1030700000F042F9422000F03FF93B2000F03CF91B
:10308000B72000F045F9072000F036F9E02000F005
:103090003FF91F2000F030F9252000F02DF9222003
:1030A00000F02AF90B2000F027F9062000F024F99F
:1030B0000A2000F021F94E2000F01EF9C62000F091
:1030C0001BF9392000F018F9002000F015F9002054
:1030D00000F012F9002000F00FF9002000F00CF9C8
:1030E000002000F009F9002000F006F9E12000F0CE
:1030F0000FF91F2000F000F93F2000F0FDF83F20FD
:1031000000F0FAF80F2000F0F7F81F2000F0F4F8B4
:103110000F2000F0F1F8462000F0EEF8492000F012
:10312000EBF8312000F0E8F8052000F0E5F8092080
:1031300000F0E2F8032000F0DFF81C2000F0DCF8DB
:103140001A2000F0D9F8002000F0D6F8F12000F0A5
:10315000DFF8362000F0D0F8042000F0CDF8002091
:1031600000F0CAF83C2000F0C7F80F2000F0C4F8C7
:103170000F2000F0C1F8A42000F0BEF8022000F0FB
:10318000BBF8F22000F0C4F8182000F0B5F8A32036
:1031900000F0B2F8122000F0AFF8022000F0ACF816
:1031A000322000F0A9F8122000F0A6F8FF2000F06D
:1031B000A3F8322000F0A0F8002000F09DF8F420E1
:1031C00000F0A6F8402000F097F8002000F094F8F6
:1031D000082000F091F8912000F08EF8042000F013
:1031E0008BF8F82000F094F8212000F085F80420F6
:1031F00000F082F8362000F08BF8482000F07CF8D0
:103200003A2000F085F8552000F076F8112000F003
:103210007FF8782006F00CF8292000F079F800F00B
:1032200009F848F2BC20C4F2402001210160FFF7F8
:10323000D3FD80BD80B540F63E20C2F200000121E2
:10324000017040F64020C2F20000017040F63C20C0
:10325000C2F20000017040F63820C2F20000017096
:1032600040F63A20C2F20000017000F069F880BD1B
:1032700080B582B00022ADF80620ADF80420ADF88C
:103280000200ADF8001040F63E20C2F200000078C7
:10329000002818BF2A2000F03BF89DF8070000F036
:1032A0002BF89DF8060000F027F89DF8030000F0C9
:1032B00023F89DF8020000F01FF840F64020C2F20B
:1032C00000000078002818BF2B2000F021F89DF89E
:1032D000050000F011F89DF8040000F00DF89DF8CD
:1032E000010000F009F89DF8000000F005F800F07A
:1032F0001BF802B080BD000081B0ADF80200BDF83F
:1033000002008021C6F60041088001B0704700002D
:1033100081B0ADF80200BDF802007E21C6F6004182
:10332000088001B07047000080B540F63C20C2F232
:1033300000000078002818BF2C20FFF7E9FF80BDAF
:1033400081B03620ADF80200A820ADF80000BDF82D
:1033500002007E21C6F600410880BDF800008021F1
:10336000C6F60041088001B07047000080B586B005
:10337000FFE70020009043F63000C4F2020001682D
:1033800041F020010160006800F0200000900098EA
:10339000FFE74FF4E06001900120029002200390CB
:1033A0000320049041F20040C4F2020001A9FDF79D
:1033B000D9FC4FF48070FDF7B9FE4FF40070FDF7B3
:1033C000B5FE4FF48060FDF7B1FE06B080BD000091
:1033D00080B582B00190019805F06CFE02B080BD0E
:1033E00080B505F061FE80BD10B582B0FFE700201A
:1033F000019043F63000C4F20200016841F48001FC
:103400000160006800F4800001900198FFE7FFE789
:1034100040F2F810C2F2000040F29C11C2F200012A
:103420000163C863FFE740F29C10C2F2000046F25D
:10343000B844C4F2020404604FF0006141604021CE
:1034400081600021C1604FF480620261416181614D
:10345000C1614FF400320262416203228262C162A2
:103460000163FDF74FFBFDF795FB206840F010006E
:1034700020604620FDF7BAFE462002210022FDF71B
:10348000BDFE40F2F810C2F200000068416941F050
:103490008001416102B010BD82B00190ADF8021010
:1034A00040F2F810C2F20000016B09680A6822F0CD
:1034B00001020A60016B09680A6822F480220A602E
:1034C000BDF80210026B126851600168026B043192
:1034D000126891600199026B1268D160006B0068FC
:1034E000016841F00101016002B07047FFE7FEE7AB
:1034F0007047000010B584B0A5208DF80C004FF087
:10350000A530029002AC30202146052200F08CF953
:1035100010202146052200F015F900208DF8070043
:10352000FFE79DF8070004280FDCFFE79DF8070080
:1035300002A9085CA52801D0FFE707E0FFE79DF896
:10354000070001308DF80700EBE7FFE79DF8070063
:10355000052804D0FFE701208DF80F0003E00020CC
:103560008DF80F00FFE79DF80F0004B010BD0000BC
:10357000B0B586B0FFE70020009043F63000C4F2FB
:103580000200016841F040010160006800F0400065
:1035900000900098FFE740F2FC05C2F2000543F2FC
:1035A0000000C4F2010028604FF4827068600024BB
:1035B000AC60EC602C616C614FF40070A861382045
:1035C000E8612C626C62AC620720E862FEF7AAFC3C
:1035D0002868016841F04001016000F00BFB4FF4E6
:1035E000807001900020C1F2210002900125039516
:1035F0000320049041F60000C4F2020001A9FDF787
:10360000B1FB172002210022FDF7F8FD40F29820BF
:10361000C4F24320046040F29C20C4F243200560C1
:1036200006B0B0BD80B582B003208DF8070040F22F
:103630009C20C4F24320002101604CF63F21C0F6DB
:1036400000013020052200F0EFF84CF63A21C0F6D8
:1036500000012A20052200F0E7F82120012100F0D6
:1036600015F92220012100F011F924201A2100F07F
:103670000DF92520322100F009F926200F2100F054
:1036800005F99DF80700012809D1FFE73120202125
:1036900000F0FCF820200F2100F0F8F84AE09DF837
:1036A0000700022809D1FFE73120202100F0EEF8C1
:1036B00020200E2100F0EAF83BE09DF807000328E7
:1036C0001BD1FFE7E120FF2100F0E0F8E220FF211D
:1036D00000F0DCF820203F2100F0D8F8502000F066
:1036E000A9FA732000F0A6FA3C20012100F0CEF8E0
:1036F0003D20072100F0CAF81AE020202E2100F01A
:10370000C5F8E120FF2100F0C1F8E220FF2100F020
:10371000BDF8502000F08EFA732000F08BFA3C20A8
:10372000012100F0B3F83D20072100F0AFF8FFE7DA
:10373000FFE7FFE740F29C20C4F243200121016033
:1037400002B080BD10B584B08DF80F0002918DF8E5
:10375000072040F29C20C4F24320002404609DF81E
:103760000F0000F067FA8DF806008DF80540FFE7BE
:103770009DF805009DF8071088420EDAFFE7FF204C
:1037800000F058FA02999DF805208854FFE79DF84B
:10379000050001308DF80500EAE740F29C20C4F2F4
:1037A00043200121016004B010BD000010B582B0BB
:1037B00007208DF8070040F29C24C4F24324002027
:1037C00020609DF8070000F035FAFF2000F032FA83
:1037D0008DF80600012020609DF8060002B010BDA3
:1037E00010B582B0019040F29824C4F24324002026
:1037F00020600199A020202200F016F8012020600E
:1038000002B010BD10B582B0019040F29824C4F20D
:103810004324002020600199A820202200F004F811
:103820000120206002B010BD10B584B08DF80F00EB
:1038300002918DF8072040F29C20C4F2432000241E
:1038400004609DF80F0000F0F5F98DF806008DF882
:103850000540FFE79DF805009DF8071088420DDA46
:10386000FFE70298411C0291007800F0E3F9FFE7BE
:103870009DF8050001308DF80500EBE740F29C2033
:10388000C4F243200121016004B010BD10B582B024
:103890008DF807008DF8061040F29C24C4F24324F2
:1038A000002020609DF8070000F0C4F98DF80500A5
:1038B0009DF8060000F0BEF90120206002B010BDA6
:1038C0008EB00D90FFE740F2EC00C2F200000068FD
:1038D00005AC21464FF0FF3207F0CCFE0C9D204690
:1038E00005F038FC854240F06E80FFE79DF815003A
:1038F0000138102800F26580DFE800F00910356318
:103900005C6363636363636363636317210005A898
:10391000811C01200C2205F0A1FD53E005A8811CAB
:103920000220122205F09AFD4CE005A8811C40F609
:103930000020C2F200001222FCF7F4FE42E005A8CB
:10394000811C40F60020C2F2000012301222FCF767
:10395000E9FE40F2F800C2F20000006800210022F7
:1039600007F0CEFC2EE040F63455C2F20005B5F962
:103970000000B5F90230B5F90420B5F9061095F844
:1039800008C040F6B83E0CFB0EFC6C7A04FB0EF44B
:10399000AE7A06FB0EF6ED7A05FB0EF52DB2039519
:1039A00036B2029626B201960FFA8CF6009606F011
:1039B000C1FE07E0BDF81600BDF8181006F09CFE29
:1039C00000E0FFE7FFE77EE78AB0099000208DF86E
:1039D0002300FFE7022005F02BFCFFF7E7FE8DF840
:1039E00022009DF822004006002815D5FFE707F0C9
:1039F00073FB6C46612021462022FFF7A3FE08F0EE
:103A00008DFA40F2EC00C2F20000006821464FF04F
:103A1000FF3207F075FCFFE79DF82200C006002882
:103A20000BD5FFE79DF82200C00728B1FFE7E12092
:103A3000FF21FFF72BFFFFE7FFE79DF8221027206C
:103A4000FFF724FFC6E700008AB00990FFE740F2C5
:103A5000F400C2F20000006801AC21464FF0FF32D2
:103A600007F008FE07F038FB2046FFF7CBFE08F012
:103A700055FAECE781B00090009800F01F01012298
:103A800002FA01F140094EF20012CEF2000242F8B1
:103A9000201001B07047000086B005900491039299
:103AA000059800F0070002900298C0F10700052871
:103AB00002D3FFE7042003E00298C0F10700FFE70C
:103AC000019002980430062802D8FFE7002002E0A7
:103AD00002980338FFE7009004980199012202FA46
:103AE00001F10139084000998840039B02FA01F175
:103AF00001391940084306B0704700004EF60C50DB
:103B0000CEF200000068C0F30220704782B001903E
:103B100000910198B0F1FF3F0BDCFFE70098000136
:103B2000019901F00F014EF61452CEF200028854B2
:103B300008E00098000101994EF20042CEF2000226
:103B40008854FFE702B0704783B00290029800F0FB
:103B5000070000904EF60C50CEF200000168019173
:103B600001994FF6FF02114001910199009A41EA33
:103B700002210022C0F2FA52114301910199016021
:103B800003B0704780B502F05BFB80BD0000000011
:103B9000EFF30980BFF36F8F154B1A681EF0100FFB
:103BA00008BF20ED108A20E9F04F10602DE90900D0
:103BB0004FF0500080F31188BFF34F8FBFF36F8F2A
:103BC00007F092FA4FF0000080F31188BDE8090079
:103BD00019680868B0E8F04F1EF0100F08BFB0EC8D
:103BE000108A80F30988BFF36F8F704700BF00BF52
:103BF0009C0A002081B010208DF8030040F2FC00E8
:103C0000C2F2000001680A6822F040020A600168FE
:103C10000A684FF6C7731A400A609DF803100268DD
:103C20001368194311600068016841F040010160A8
:103C300001B0704780B582B08DF807000DF1070024
:103C40000DF10601FEF71AFA9DF8060002B080BDDC
:103C500080B586B0049003910292019300200090F9
:103C6000FDF77EFA00900298002847D1FFE7FFE7B2
:103C70000498006880680399084088423DD0FFE7B7
:103C800001980130C0B3FFE7019840B1FFE7FDF7AD
:103C900067FA0099401A019988422CD9FFE70498E5
:103CA0000068416821F0E001416004980068016803
:103CB00021F0400101600498806AB0F5005F0FD1E7
:103CC000FFE7FFE704980068016821F400510160F4
:103CD00004980068016841F400510160FFE7FFE7C4
:103CE000049801214165FFE7049800210165FFE781
:103CF000032005904CE0FFE7BAE746E0FFE70498B1
:103D0000006880680399084088423DD1FFE7019828
:103D10000130C0B3FFE7019840B1FFE7FDF720FA9B
:103D20000099401A019988422CD9FFE7049800684D
:103D3000416821F0E001416004980068016821F0C9
:103D4000400101600498806AB0F5005F0FD1FFE781
:103D5000FFE704980068016821F4005101600498AD
:103D60000068016841F400510160FFE7FFE7049833
:103D700001214165FFE7049800210165FFE7032069
:103D8000059005E0FFE7BAE7FFE700200590FFE7B1
:103D9000059806B080BD000080B58CB0FFE700201C
:103DA000049043F63800C4F20200016841F00101BA
:103DB0000160006800F0010004900498FFE7FFE74D
:103DC0000020039043F63000C4F20200016841F085
:103DD00008010160006800F0080003900398FFE705
:103DE000FFE70020029043F63000C4F202000168B1
:103DF00041F010010160006800F01000029002988C
:103E0000FFE7FFE70020019043F63000C4F2020014
:103E1000016841F020010160006800F0200001907D
:103E20000198FFE7FFE70020009043F63000C4F25E
:103E30000200016841F040010160006800F04000AC
:103E400000900098FFE740F64050C2F200004FF0AB
:103E50002041016040F20411CAF2000141600421D6
:103E600081600021C1600161102242618161C161F4
:103E7000016241624FF480528262C1620163416318
:103E80008163C163416405910691082207920891FC
:103E900009910A910B9105A90A46FEF741FB0CB066
:103EA00080BD0000000000000000000000000000D5
:103EB000074B19680868B0E8F04F80F30988BFF332
:103EC0006F8F4FF0000080F31188704700BF00BF74
:103ED0009C0A002080B598B04FF4C07017900C2059
:103EE0001690022015900820149000201390FFE7F0
:103EF0000020019043F64000C4F20200016841F046
:103F000080510160006800F0805001900198FFE747
:103F1000FFE70020009047F20000C4F200000168B3
:103F200041F440410160006800F440400090009876
:103F3000FFE701200790089002200D904FF48000C9
:103F40000E9016980F90179810901598119014983D
:103F5000129007A8FDF7E6FC1390139810B1FFE745
:103F6000FFE7FEE7FDF768F91390139810B1FFE73C
:103F7000FFE7FEE70F20029002200390002004904C
:103F80004FF4A05005904FF48050069002A8FDF722
:103F9000C5F91390139810B1FFE7FFE7FEE718B0DB
:103FA00080BD000080B582B0009000980138B0F16B
:103FB000807F03D3FFE70120019019E000980138CA
:103FC0004EF21401CEF2000108604FF0FF300F21D5
:103FD000FFF79CFD4EF21800CEF2000000210160B8
:103FE0004EF21000CEF20000072202600191FFE7BE
:103FF00002B080BD80B507F049FD012803D0FFE77E
:1040000007F0E2F8FFE7FDF7B1F880BD4EF6885003
:10401000CEF20000016841F47001016043F6000037
:10402000C4F20200016841F00101016043F6080199
:10403000C4F2020100220A6001684FF6FF73CFF656
:10404000F6631940016043F60401C4F2020143F231
:104050001003C2F200430B60016821F4802101606B
:1040600043F60C00C4F2020002604EF60850CEF295
:1040700000004FF0006101607047000080B5FEF75E
:10408000E9FA80BD92B01190FFE740F24020C2F201
:104090000000006801A94FF0FF3207F0EBFA0020A2
:1040A00010900F900E900D900C900B900A9009902C
:1040B0008DF801009DF806008DF802009DF80700BC
:1040C0008DF800009DF802000138142800F23182BA
:1040D000DFE810F015004F002F022F022F022F02F1
:1040E0002F022F022F022F022F022F022F022F0248
:1040F0002F029F00040169018B01AD01CF01002057
:104100008DF80300FFE79DF803009DF800100431CF
:10411000884210DAFFE79DF8030001A9085C9DF8CA
:10412000011008448DF80100FFE79DF803000130FD
:104130008DF80300E7E79DF801100124012006F047
:1041400003FA8DF824408DF825409DF808008DF87D
:10415000260009AC204604F0FDFF109040F2F40068
:10416000C2F20000006821464FF0FF3207F0C8F8A5
:10417000E0E100208DF80300FFE79DF803009DF8C3
:1041800000100431884210DAFFE79DF8030001A90E
:10419000085C9DF8011008448DF80100FFE79DF8C8
:1041A000030001308DF80300E7E79DF801100220BD
:1041B00006F0CAF99DF80800012828D1FFE7012080
:1041C0008DF8240002208DF825009DF808008DF858
:1041D000260009AC204604F0BDFF109040F2F40028
:1041E000C2F20000006821464FF0FF3207F088F865
:1041F00040F2F800C2F200000068642107F0E4FA1F
:10420000012803D1FFE706F0B5F9FFE700E0FFE77B
:1042100090E19DF808009DF8091041EA002140F660
:104220000020C2F20000C1809DF80A109DF80B200A
:1042300042EA012101819DF80C109DF80D2042EA0F
:10424000012141819DF80E109DF80F2042EA0121C5
:1042500001809DF810109DF8112042EA0121418053
:104260009DF812109DF8132042EA012181809DF8EB
:1042700014109DF8152042EA012181819DF8161045
:104280009DF8172042EA0121C1819DF818109DF880
:10429000192042EA0121018200208DF80300FFE786
:1042A0009DF803009DF800100431884210DAFFE702
:1042B0009DF8030001A9085C9DF8011008448DF8E1
:1042C0000100FFE79DF8030001308DF80300E7E7E8
:1042D0009DF80110102006F037F92BE19DF8080039
:1042E0009DF8091041EA002140F60020C2F20000CA
:1042F00041829DF80A109DF80B2042EA012181823B
:104300009DF80C109DF80D2042EA0121C1829DF814
:104310000E109DF80F2042EA012101839DF8101034
:104320009DF8112042EA012141839DF812109DF869
:10433000132042EA012181839DF814109DF8152075
:1043400042EA0121C1839DF816109DF8172042EA28
:10435000012101849DF818109DF8192042EA0121DD
:10436000418400208DF80300FFE79DF803009DF8CD
:1043700000100431884210DAFFE79DF8030001A91C
:10438000085C9DF8011008448DF80100FFE79DF8D6
:10439000030001308DF80300E7E79DF801101120BC
:1043A00006F0D2F8C6E000208DF80300FFE79DF884
:1043B00003009DF800100431884210DAFFE79DF8F1
:1043C000030001A9085C9DF8011008448DF8010064
:1043D000FFE79DF8030001308DF80300E7E79DF843
:1043E0000110122006F0B0F8A4E000208DF80300C0
:1043F000FFE79DF803009DF800100431884210DAB1
:10440000FFE79DF8030001A9085C9DF8011008442E
:104410008DF80100FFE79DF8030001308DF80300DF
:10442000E7E79DF80110132006F08EF882E00020E7
:104430008DF80300FFE79DF803009DF8001004319C
:10444000884210DAFFE79DF8030001A9085C9DF897
:10445000011008448DF80100FFE79DF803000130CA
:104460008DF80300E7E79DF80110142006F06CF8C2
:1044700060E000208DF80300FFE79DF803009DF841
:1044800000100431884210DAFFE79DF8030001A90B
:10449000085C9DF8011008448DF80100FFE79DF8C5
:1044A000030001308DF80300E7E79DF801101520A7
:1044B00006F04AF84FF012088DF8248010208DF88D
:1044C000250009ACA51C40F60026C2F200062846CD
:1044D00031461222FCF726F9204604F03BFE1090EC
:1044E00040F2F407C2F20007386821464FF0FF326D
:1044F00006F006FF002010900F900E900D900C908B
:104500000B900A9009908DF8248011208DF82500D9
:1045100006F1120128461222FCF704F9204604F0A5
:1045200019FE1090386821464FF0FF3206F0E8FE81
:1045300000E0FFE7A9E500008AB00990FFE740F23C
:104540004820C2F20000006801AC21464FF0FF3263
:1045500007F090F89DF80700411D2046FEF79CFFEC
:1045600040F27400C2F2000000684FF0FF3107F023
:104570002BF9E4E780B582B0019001980068C1682A
:1045800021F04001C1600198C06B322804D1FFE7DF
:1045900001982221C16303E001980121C163FFE773
:1045A0000198FEF737FB02B080BD000080B584B0F3
:1045B0000290002000900298C06B00900098222882
:1045C00004D0FFE7009832286DD1FFE70298806899
:1045D000B0F5805F1FD1FFE70298806A01900298D2
:1045E000006960B9FFE70298006840686FF35F20D8
:1045F000019908800298816A023181620AE002987A
:1046000000684068C0B2019908800298816A01314F
:104610008162FFE718E00298006948B9FFE7029855
:104620000068406802998A6A531C8B6210700AE025
:1046300002980068406800F07F0002998A6A531C63
:104640008B621070FFE7FFE70298C18D0139C185C9
:10465000080428BBFFE702980068C16821F0200128
:10466000C1600298C06B322804D1FFE70298122182
:10467000C1630FE002980068C16821F48071C160D5
:1046800002980068416921F001014161029801210D
:10469000C163FFE70298FEF7B9FA0020039005E036
:1046A0000020039002E002200390FFE704B080BDE9
:1046B000F0B583B002900020019002980068006974
:1046C0000190019820F4405001900298C06801992F
:1046D00008430190019802990968086102980068EE
:1046E000C0680190019849F20C61884301900298DA
:1046F000816802694369C0691143194308430199FC
:1047000008430190019802990968C86002980068FE
:1047100040690190019820F44070019002988069EE
:10472000019908430190019802990968486102982B
:10473000C069B0F5004F75D1FFE70298006841F2FB
:104740000001C4F20101884209D0FFE70298006825
:1047500041F20041C4F20101884231D1FFE7FDF787
:1047600039F819256843029949684900B0FBF1F00E
:1047700048F21F56C5F2EB16A0FB06014C08FDF7E8
:1047800029F86843029949684900B0FBF1F7FDF741
:1047900021F8684302990A6849684900B0FBF1F0C2
:1047A000A0FB06014809642100FB1170322101EBD6
:1047B0000010A0FB0601480960F30304946030E098
:1047C000FCF7EAFF19256843029949684900B0FBE4
:1047D000F1F048F21F56C5F2EB16A0FB06014C089B
:1047E000FCF7DAFF6843029949684900B0FBF1F72A
:1047F000FCF7D2FF684302990A6849684900B0FB98
:10480000F1F0A0FB06014809642100FB1170322180
:1048100001EB0010A0FB0601480960F3030494605B
:10482000FFE774E00298006841F20001C4F2010160
:10483000884209D0FFE70298006841F20041C4F2C3
:104840000101884231D1FFE7FCF7C4FF1925684315
:10485000029949688900B0FBF1F048F21F56C5F291
:10486000EB16A0FB06014C08FCF7B4FF6843029965
:1048700049688900B0FBF1F7FCF7ACFF6843029987
:104880000A6849688900B0FBF1F0A0FB06014809FD
:10489000642100FB1170322101EB0010A0FB060126
:1048A000480960F30304946030E0FCF775FF1925B4
:1048B0006843029949688900B0FBF1F048F21F563D
:1048C000C5F2EB16A0FB06014C08FCF765FF684338
:1048D000029949688900B0FBF1F7FCF75DFF684376
:1048E00002990A6849688900B0FBF1F0A0FB060153
:1048F0004809642100FB1170322101EB0010A0FB7C
:104900000601480960F303049460FFE7FFE703B082
:10491000F0BD000084B00290002000900298C06BAF
:1049200000900098122804D0FFE7009832283FD169
:10493000FFE702988068B0F5805F19D1FFE7029821
:10494000006A0190019800886FF35F20029909685E
:1049500048600298006928B9FFE70298016A0231AD
:10496000016204E00298016A01310162FFE708E098
:104970000298016A4A1C0262087802990968486034
:10498000FFE70298C18C0139C184080468B9FFE7C8
:1049900002980068C16821F08001C1600298006837
:1049A000C16841F04001C160FFE70020039002E0D0
:1049B00002200390FFE704B07047000080B582B08A
:1049C00041F20400C4F2010000688DF803009DF874
:1049D0000300AA2815D1FFE740F24C20C2F20000E4
:1049E000007870B9FFE740F24C20C2F200000121CC
:1049F00001709DF8030040F25221C2F200010870DC
:104A00002FE19DF80300AF281DD1FFE740F24C20B5
:104A1000C2F200000078012815D1FFE740F24D20D6
:104A2000C2F20000007870B9FFE740F24D20C2F2F8
:104A30000000012101709DF8030040F25221C2F2F2
:104A4000000148700CE140F24C20C2F200000078F6
:104A500001281DD1FFE740F24D20C2F2000000788E
:104A6000012815D1FFE740F24F20C2F20000007884
:104A700070B9FFE79DF8030040F24F21C2F2000138
:104A80000870087840F25221C2F200018870E6E016
:104A900040F24C20C2F200000078012824D1FFE748
:104AA00040F24D20C2F20000007801281CD1FFE73F
:104AB00040F24F20C2F200000078A8B1FFE740F2B8
:104AC0005020C2F20000007870B9FFE79DF80300A3
:104AD00040F25021C2F200010870087840F25221E1
:104AE000C2F20001C870B9E040F24C20C2F20000EE
:104AF0000078012834D1FFE740F24D20C2F20000D7
:104B0000007801282CD1FFE740F24F20C2F20000CC
:104B1000007828B3FFE740F25020C2F2000000788E
:104B2000F0B1FFE740F24E20C2F20000007840F200
:104B30005021C2F200010978884211D0FFE79DF8A8
:104B4000030040F24E21C2F200010A7840F25223E3
:104B5000C2F200031A4410710878013008707CE03A
:104B600040F24C20C2F200000078012874D1FFE727
:104B700040F24D20C2F20000007801286CD1FFE71E
:104B800040F24F20C2F200000078002864D0FFE716
:104B900040F25020C2F20000007800285CD0FFE70D
:104BA00040F24E20C2F20000007840F25021C2F2E2
:104BB0000001097888424FD1FFE79DF8030040F2D9
:104BC0005121C2F200010870087840F24E21C2F271
:104BD00000010A7840F25221C2F200010A44107129
:104BE00040F24020C2F20000006801AA06F062FC18
:104BF0000198012810D1FFE7019860B1FFE74EF658
:104C00000450CEF200004FF080510160BFF34F8F8F
:104C1000BFF36F8FFFE7FFE740F24C20C2F20000C6
:104C20000021017040F24D20C2F20000017040F2FC
:104C30004F20C2F20000017040F25020C2F200008A
:104C4000017040F24E20C2F20000017040F251208B
:104C5000C2F200000170FFE7FFE7FFE7FFE7FFE7B1
:104C6000FFE7FDF74DFE02B080BD000090B00F9051
:104C7000FFE740F27820C2F2000000680AA94FF076
:104C8000FF3206F0F7FC0020089007900690059090
:104C90000490039002900190BDF9300000EE100ADC
:104CA000B8EEC00A9FED52AA30EE0A0A9FED518A73
:104CB0009FED519AF0EE480AB0EE491A04F0AAFBB3
:104CC000BDEEC00A10EE100A40F63454C2F20004E1
:104CD0002080BDF92E0000EE100AB8EEC00A30EEBA
:104CE0000A0AF0EE480AB0EE491A04F093FBBDEE52
:104CF000C00A10EE100AE080BDF9340000EE100A80
:104D0000B8EEC00A30EE0A0AF0EE480AB0EE491AD0
:104D100004F080FBBDEEC00A10EE100A6080BDF901
:104D2000320000EE100AB8EEC00A30EE0A0AF0EEC9
:104D3000480AB0EE491A04F06DFBBDEEC00A10EE51
:104D4000100AA080208840F2DB51884208DCFFE78F
:104D500040F63450C2F2000040F2DC510180FFE71F
:104D600040F63454C2F20004208800EE100AB8EE77
:104D7000400ADFED220A9FED221A04F04BFBBDEE44
:104D8000C00A10EE100AA0F6B83020809DF82B0063
:104D9000C0F3001020729DF82B00C0F34010607229
:104DA0009DF82B00C0F38010A0729DF82B00C00965
:104DB000E0720C208DF8040000208DF805002068BA
:104DC0006168A268CDF80E20CDF80A10CDF8060073
:104DD00001AC204604F0BEF9089040F2F400C2F2A3
:104DE0000000006821464FF0FF3206F089FA40E7E4
:104DF000000000470000000000FF7F470080BB4428
:104E000000803B4580B582B001908DF80310019879
:104E100000F092FAADF80000BDF800004FF6FF7107
:104E200088420CD0FFE79DF8030000F5004001998F
:104E3000BDF8002001EB4201A1F8E805FFE79DF86D
:104E4000000002B080BD000010B582B040F28820A2
:104E5000C2F2000000900098006808282FD1FFE7F8
:104E60000098806828B1FFE700988068012826D163
:104E7000FFE740F27C20C2F200000188013101808E
:104E80000088B0F5FA6F19DDFFE740F27C20C2F22E
:104E900000000021018043F61404C4F202042068DB
:104EA00040F080002060052004F0C2F9206820F066
:104EB0008000206001208DF807000BE006E040F242
:104EC0007C20C2F2000000210180FFE700208DF865
:104ED0000700FFE79DF8070002B010BD83B040F265
:104EE000EC30C2F20000019040F28400C2F20000F7
:104EF00000900198009991F8401000EB8100D0F8E3
:104F00009003082804D1FFE701208DF80B0003E08F
:104F100000208DF80B00FFE79DF80B0003B07047F1
:104F200080B584B0039002918DF807208DF806308B
:104F30000298022180F824100298012180F825109F
:104F400002980021C1849DF80700029A10850298FA
:104F500041859DF807000006002809D5FFE7039862
:104F60009DF8061000EB4110002180F8201408E0A5
:104F700003989DF8061000EB4110002180F82114E1
:104F8000FFE7039802990022002300F03BF804B0E9
:104F900080BD000081B0009000980121C0F810137E
:104FA00001B0704780B584B003900291ADF806203F
:104FB0008DF8053003989DF8051000EB4110012194
:104FC00080F80A1403989DF8051000EB41100221A7
:104FD00080F81014029803999DF8052001EB421106
:104FE000C1F81404BDF8060003999DF8052001EBF3
:104FF0004211C1F8180403989DF80510FDF790FEC2
:1050000004B080BD80B586B0059004910392ADF8E0
:105010000A30012001900498C068012803D0FFE7FE
:1050200002280CD031E004980399BDF80A2001F061
:10503000C7FD04980221C1600120019026E0049878
:10504000C06A0D2808D1FFE704980121C1600498C7
:105050000021C162019117E00498C06A0B2806D1B3
:10506000FFE704980121C160022001900BE0049841
:10507000C06A0C2806D1FFE704980121C160032013
:105080000190FFE7FFE7FFE700E0FFE7019806B0C8
:1050900080BD000080B584B003900291ADF8062079
:1050A0008DF8053003989DF8051000EB41100021A4
:1050B00080F80A14029803999DF8052001EB42112B
:1050C000C1F81404BDF8060003999DF8052001EB12
:1050D0004211C1F81804BDF8060048B9FFE703986B
:1050E0009DF8051000EB4110012180F82114FFE725
:1050F00003989DF8051000EB411090F8210448B981
:10510000FFE703989DF8051000EB4110002180F89F
:10511000101408E003989DF8051000EB41100221DF
:1051200080F81014FFE703989DF80510FDF7F8FDCF
:1051300004B080BD80B584B0039002918DF8072043
:1051400003989DF8071000EB4110002180F80A1425
:1051500003989DF8071000EB4110032180F810140C
:10516000029803999DF8072001EB4211C1F814043D
:1051700003989DF8071000EB41100821C0F818149F
:1051800003989DF80710FDF7CBFD04B080BD00002B
:1051900082B0019002208DF80300FFE79DF8030024
:1051A00007280FDCFFE701989DF8031000EB410092
:1051B0000021A0F8E815FFE79DF8030001308DF805
:1051C0000300EBE702B0704780B582B00190009118
:1051D000009800210160009841600098816000986B
:1051E0000122C2600098C262009840238374009834
:1051F00080F83010009880F8312001980099097CDF
:1052000000F046F801980099497C00F041F802B09E
:1052100080BD000010B582B00190019800240021EB
:1052200001F0E8FE0198C06884610198C0684FF001
:10523000FF314161019802F0B7F80198C0F81043BE
:1052400002B010BD80B582B0019000910098052891
:1052500004D0FFE70098042809D1FFE70198D0F8AF
:105260006001406C804701980C2101600DE00098BE
:10527000062809D1FFE701980C2101600198D0F8B8
:10528000600100688047FFE7FFE702B080BD0000D3
:1052900082B001908DF803109DF8030007280CDC04
:1052A000FFE701989DF8031000EB4100B0F8E81506
:1052B0006FF3DF31A0F8E815FFE702B07047000098
:1052C00080B584B0DDF81CC0DDF818E003900291D1
:1052D0008DF80720ADF80430ADF802C09DF8070046
:1052E00040F08000029981F824000298062180F89D
:1052F0002510BDF804000299C8849DF805004FF4FC
:105300004071B1EB002F05D1FFE7029840F209414F
:10531000018503E0029800210185FFE7BDF8020046
:105320000299488503980299069ABDF80230FFF762
:1053300069FE04B080BD000083B0019000208DF8AC
:105340000300FFE79DF80300072817DCFFE701983B
:105350009DF8031000EB4100B0F8E80500040028B8
:1053600005D4FFE79DF80300ADF80A000BE0FFE766
:105370009DF8030001308DF80300E3E74FF6FF705E
:10538000ADF80A00FFE7BDF80A0003B0704700005F
:1053900083B0029001910298007801990A88104424
:1053A00008800298017808440090009803B0704784
:1053B00080B588B007900691ADF816200020ADF8B2
:1053C0000A000798069900F58872BDF81630019317
:1053D000009200224FF40073FFF772FF049030BB7D
:1053E000FFE7FFE7BDF80A00BDF81610884207DAAC
:1053F000FFE7FFE7BDF80A000130ADF80A00F1E76A
:10540000069A02F1440002F14E017232079B03F545
:105410008873BDF816C0CDF800C001F00DF80390F8
:10542000039818B1FFE703980490FFE7FFE704989B
:1054300008B080BD80B586B0059004918DF80F202E
:105440000598049900F588729DF80F300193009239
:1054500000224FF48073FFF733FF029050B9FFE74B
:1054600004983230059901F588719DF80F2001F0FC
:10547000DBF8FFE7029806B080BD000080B586B07B
:10548000059004910920ADF80E000598049900F5E7
:105490008872BDF80E300193009201224FF404533C
:1054A000FFF70EFF0290029806B080BD80B586B06F
:1054B00005900491ADF80E200598049900F58872C6
:1054C000BDF80E300193009201224FF40853FFF70C
:1054D000F7FE0290029806B080BD000080B588B04B
:1054E000079006918DF817200493FF20ADF80E0069
:1054F000079806999DF8172002F5407300F5887CFF
:10550000BDF80E200192CDF800C00022FFF7D8FEB2
:10551000029048B9FFE7079800F588700499BDF834
:105520000E2001F049F9FFE7029808B080BD0000A5
:1055300080B586B0059004910498039001200290F4
:10554000019040F28400C2F20000C06C042855D8DB
:10555000DFE800F003160329450005980399FFF7DB
:105560008DFF60B9FFE7059800F5887001F0CEF86F
:1055700040F28400C2F200000121C164FFE73EE076
:105580000598039940F27802C2F200021289FFF7EF
:105590008DFF38B9FFE740F28400C2F2000003211A
:1055A000C164FFE72BE00598039901F0BBFA019075
:1055B000019838B9FFE740F28400C2F200000421EC
:1055C000C1640BE00198032807D1FFE740F2840093
:1055D000C2F200000421C164FFE7FFE70FE0059875
:1055E000039901F0C5FA40B9FFE740F28400C2F226
:1055F00000000021C1640291FFE700E0FFE702988C
:1056000006B080BD10B584B003900291029801905D
:105610000020009040F28400C2F20000406C052897
:1056200000F29480DFE800F00392921B0D3440F208
:105630008404C2F20004A06D006880470420606406
:10564000FFE7039802F010FB012807D1FFE740F2C3
:105650008400C2F2000003214164FFE777E0039871
:1056600040F28404C2F2000494F8402094F85010F0
:1056700000F02AFD40F69450C2F2000001210170B2
:10568000052060640398FDF7C9FAA4F856005EE0AF
:105690000398FDF7C3FA40F28401C2F20001B1F8A9
:1056A0005620801AB1F85410884207D3FFE740F221
:1056B0008400C2F200000321416446E0039840F2F6
:1056C0008401C2F2000191F84010FDF7BBFA0128F5
:1056D00017D1FFE740F69450C2F20000007801288D
:1056E0000ED1FFE740F69450C2F200000021017095
:1056F00040F28400C2F20000816D49688847FFE7EC
:1057000022E0039840F28401C2F2000191F84010B7
:10571000FDF798FA042816D1FFE70398019940F2A3
:105720008402C2F2000292F8403092F85220FFF751
:10573000F7FB38B9FFE740F28400C2F20000032112
:105740004164FFE7FFE7FFE7FFE700E0FFE70098BE
:1057500004B010BD10B582B00190009140F28400F9
:10576000C2F2000090F8400090B1FFE7019840F2CB
:105770008404C2F2000494F8401001F07DFF019807
:1057800094F84010FFF784FD002084F84000FFE704
:1057900040F28400C2F2000090F8410090B1FFE7AF
:1057A000019840F28404C2F2000494F8411001F020
:1057B00063FF019894F84110FFF76AFD002084F818
:1057C0004100FFE740F69450C2F200000021017052
:1057D00002B010BD10B588B00790069106980490ED
:1057E00000208DF80F000120029040F28400C2F2E8
:1057F000000006214164049890F854005D2840F0B0
:10580000AE80FFE740F28400C2F2000040F20001E7
:10581000C2F20001816500214164C164049991F8DC
:10582000741080F852100499B1F87610A0F8501056
:10583000049991F87810A0F85410B0F85400092891
:1058400008DCFFE740F28400C2F200000A21A0F861
:105850005410FFE7049890F85200072804DCFFE793
:10586000049890F8520001E00720FFE78DF8170038
:1058700000208DF80F00FFE79DF80F009DF817102E
:10588000884264DAFFE704989DF80F1000EBC1002E
:1058900090F874000006002829D5FFE704989DF8C9
:1058A0000F1000EBC10090F8740040F28404C2F2C3
:1058B000000484F84900079804999DF80F2001EB33
:1058C000C20191F87410FFF79DFA84F84000079820
:1058D00094F84010049B93F8302093F83130B4F8DA
:1058E000504001940324009400F030FD28E0049817
:1058F0009DF80F1000EBC10090F8740040F2840492
:10590000C2F2000484F84800079804999DF80F201B
:1059100001EBC20191F87410FFF774FA84F84100AA
:10592000079894F84110049B93F8302093F8313095
:10593000B4F8504001940324009400F007FDFFE701
:10594000FFE79DF80F0001308DF80F0094E740F657
:105950009450C2F200000021017002916DE00498A1
:1059600090F85300092807D1FFE74CF6A830C0F69D
:10597000000006F0E9FB5AE0049890F85300022872
:1059800007D1FFE74CF60540C0F6000006F0DCFB4F
:105990004CE0049890F85300082807D1FFE74CF634
:1059A000C030C0F6000006F0CFFB3EE0049890F84F
:1059B0005300072807D1FFE74CF63F40C0F6000030
:1059C00006F0C2FB30E0049890F853000B2807D192
:1059D000FFE74CF6DF30C0F6000006F0B5FB22E032
:1059E000049890F853000E2807D1FFE74CF6863054
:1059F000C0F6000006F0A8FB14E0049890F85300ED
:105A0000102807D1FFE74CF66240C0F6000006F010
:105A10009BFB06E04CF67A20C0F6000006F094FBF3
:105A2000FFE7FFE7FFE7FFE7FFE7FFE7FFE7049890
:105A3000D0F86001006C8047FFE7029808B010BD05
:105A4000B0B540F2EC30C2F2000040F28824C2F25D
:105A500000042146FFF7B8FB02F076FAD4F86001A3
:105A60000069E0B1FFE740F28824C2F20004D4F8F4
:105A700060010069804740F2EC35C2F2000528461B
:105A80002146FFF7A1FBD4F8600140688047D4F8B5
:105A90005C01426804F1300128469047FFE740F27C
:105AA000EC34C2F20004204601F07EFC43F61405FB
:105AB000C4F20205286840F080002860052003F049
:105AC000B7FB286820F08000286020464FF4C161B1
:105AD000FAF741FE40F28820C2F200004FF4B271A2
