:020000040000FA
:10000000E0D50020CD0100000D0200007D1B0000A6
:1000100011020000130200001502000000000000A1
:10002000000000000000000000000000414000004F
:100030001902000000000000F1360000BD41000080
:100040001F0200001F0200001F0200001F0200002C
:100050001F0200001F0200001F0200001F0200001C
:100060001F0200001F0200001F0200001F0200000C
:100070001F0200001F0200001F0200001F020000FC
:10008000211900001F0200001F0200001F020000D3
:100090001F0200001F0200001F0200001F020000DC
:1000A0001F0200001F0200001F0200001F020000CC
:1000B0001F0200001F0200001F0200001F020000BC
:1000C000294300001F0200001F0200001F02000061
:1000D0001F0200001F0200001F0200001F0200009C
:1000E0001F0200001F0200001F0200001F0200008C
:1000F0001F0200001F0200001F0200001F0200007C
:100100001F0200001F0200001F0200001F0200006B
:100110001F0200001F0200001F0200001F0200005B
:100120001F0200001F0200001F0200001F0200004B
:100130001F0200001F0200001F0200001F0200003B
:100140001F0200001F0200001F0200001F0200002B
:100150001F0200001F0200001F0200001F0200001B
:100160001F0200001F0200001F0200001F0200000B
:100170001F0200001F0200001F0200001F020000FB
:100180001F0200001F0200001F0200001F020000EB
:100190001F0200001F0200001F0200001F020000DB
:1001A0001F0200001F0200001F0200001F020000CB
:1001B0001F0200001F020000DFF80CD000F0BAFBA5
:1001C0000048004779470000E0D5002014484FF070
:1001D000590101604FF0160101604FF08801016084
:1001E0001048416841F4804141600F48416841F046
:1001F00002014160416841F0040141600B488047C1
:1002000007484FF00001016009480047FEE7FEE79C
:10021000FEE7FEE7FEE7FEE7FEE7FEE7FEE7FEE7B6
:100220000001004000020040007000407D420000DC
:10023000B90100002DE9F05F0546002092469B467B
:1002400088460646814640241BE0284641464746EC
:10025000224600F020FA53465A46C01A914110D364
:1002600011461846224600F007FA2D1A67EB0108DE
:100270004F4622460120002100F0FEF917EB00094D
:100280004E41201EA4F10104DFDC484631462A46D7
:100290004346BDE8F09F40EA01039B0703D009E015
:1002A00008C9121F08C0042AFAD203E011F8013B62
:1002B00000F8013B521EF9D27047D2B201E000F8BB
:1002C000012B491EFBD270470022F6E710B51346FA
:1002D0000A4604461946FFF7F0FF204610BD2DE9F7
:1002E000FE4F804681EA0300C00F0C46009021F0CB
:1002F000004123F00045B8EB0200A94105D2404679
:10030000214690461C460B46024623F0004010430F
:1003100047D0270DC7F30A00C3F30A510290401AD1
:10032000019040286BDAC3F3130040F4801B00985F
:10033000924620B10023D2EB030A63EB0B0B01982A
:100340005946C0F14002504600F096F906460D4667
:1003500050465946019A00F0AEF910EB0800614191
:10036000002487EA115284EAE7731A4340D0009AC6
:1003700062B3019A012A4FEA075215DC001B61EBB8
:1003800002014FF0004202EA0752CDE90042001C90
:1003900041F5801132462B4600F0E5F903B0BDE887
:1003A000F08F40462146F9E7001B61EB0201001C7B
:1003B00041F5801300185B412018A2F5001747EBA8
:1003C000030140EAD570B6196D4111E06D084FEA9E
:1003D000360645EAC0754FEA0752001B61EB020181
:1003E000001C41F5801149084FEA300000195141C5
:1003F00032462B4603B0BDE8F04F00F0A5B9009897
:10040000012240000023D0EB020263EBE07300986E
:1004100021464FEAE074B8EB000061EB0401E9E724
:1004200083F000435BE781F0004158E72DE9FE4F80
:1004300081EA030404F0004421F0004100944FF0ED
:10044000000B23F0004350EA01045ED052EA03049B
:100450005BD0C3F30A54C1F30A552C44A4F2F3341D
:100460000194A0FB0254C1F3130141F48011C3F3C2
:10047000130343F4801301FB024400FB034E840A80
:10048000970A44EA815447EA8357A4FB0768029518
:100490008D0A05FB07854FEA932C04FB0C542705B6
:1004A000029D4FEA065847EA1637B5EB08056EEB92
:1004B000070C870E920E47EA811742EA8312A7FBC8
:1004C0000201B6EB0B0164EB00042B0D43EA0C3385
:1004D0005E1844EB1C50DA465146E7FB0201C5F3B7
:1004E00013044FEA0B3343EA14534FEA0432019CDE
:1004F00043EA0603A4F10C040294009CCDE900B485
:1005000000F031F903B0BDE8F08F00200146F9E7B3
:100510002DE9F04D81EA030404F0004B21F0004581
:1005200014464FF0000A23F0004150EA050220D0A3
:1005300054EA01021DD0C5F30A570246C5F313035E
:10054000C1F31300C1F30A5640F4801543F480133D
:10055000A7EB0608101BD64608F2FD3873EB050022
:1005600002D308F1010801E092185B41B8F1000FD5
:1005700003DA00200146BDE8F08D00204FF4801121
:10058000064684460EE0171B73EB050705D3121BC6
:1005900063EB050306434CEA010C49084FEA3000BF
:1005A00092185B4150EA0107EDD152EA030012D0E4
:1005B00082EA040083EA0501084305D0101BAB4121
:1005C00006D20122002306E000224FF0004302E0A1
:1005D0006FF0010253101AEB06004CEB085110EBC0
:1005E0000A0041EB0B01BDE8F04D00F0ADB800F0A2
:1005F000004230F000400AD0C10D01F56071C0F337
:10060000160042EA0151C20840071143704700201A
:100610000146704701F0004330B421F0004150EA38
:10062000010206D00A0DA2F56072C1F31301002A7F
:1006300002DC30BC00207047440F44EAC104C10012
:10064000E01830BC00EBC25000F047B830B50B46A4
:10065000014600202022012409E021FA02F59D42F2
:1006600005D303FA02F5491B04FA02F52844151EC6
:10067000A2F10102F1DC30BD202A04DB203A00FAAD
:1006800002F1002070479140C2F1200320FA03F3E9
:10069000194390407047202A04DB203A21FA02F0E7
:1006A0000021704721FA02F3D040C2F120029140AC
:1006B000084319467047202A06DBCB17203A41FA37
:1006C00002F043EAE07306E041FA02F3D040C2F1DF
:1006D000200291400843194670470029A8BF70477F
:1006E000401C490008BF20F00100704710B4B0FA68
:1006F00080FC00FA0CF050EA010404BF10BC704703
:1007000049B1CCF1200421FA04F411FA0CF118BF1C
:10071000012121430843A3EB0C01CB1D4FEA0061EB
:100720004FEA102042BF002010BC704700EBC350BE
:1007300010440029A4BF10BC7047401C490008BFEA
:1007400020F0010010BC704710B5141E73F10004B6
:1007500008DA401C41F1000192185B411A4301D1B3
:1007600020F0010010BD2DE9F04D92469B4611B1DD
:10077000B1FA81F202E0B0FA80F220329046FFF73F
:100780007BFF04460F4640EA0A0041EA0B0153464C
:100790005A46084313D0114653EA010019D0C8F154
:1007A00040025046FFF777FF05460E465046594631
:1007B0004246FFF761FF084305D0012004E02046D0
:1007C0003946BDE8F08D0020054346EAE0762C432B
:1007D00037430A986305E40AA0EB08000022FD0AEB
:1007E00044EA47540A3002D500200146E9E70105F2
:1007F00010196941DDE9084500196941BDE8F04D6E
:10080000A2E72DE9F04D00231A461B1A8A4103DBAB
:1008100000200146BDE8F08DC1F30A52C1F3130177
:1008200041F480154FF0000BD10702D100186D4143
:10083000521E0027044640F2FF11384601EB620ABF
:100840003E468046024600204FF48011FFF723FF0A
:10085000C2197141BB1846EB0100B4EB030C75EBF8
:10086000000C04D3E41A65EB000517460E46241964
:1008700008F101006D4180463428E3DDF91946EBAB
:100880000600091BA84103D24FF0FF32134601E0D6
:10089000002213461BEB070046EB0A51BDE8F04D62
:1008A000FFF752BFC1F30A52C1F3130140F2FF3305
:1008B00041F480119A4202DA00200146704740F26A
:1008C00033439A42A2F2334202DC5242FFF7E3BEC4
:1008D000FFF7D2BE30B5041E71F1000404DB4FF007
:1008E0000044404264EB0101141E73F1000405DB77
:1008F0001C464FF00043524263EB04038B4208BF97
:10090000824230BD30B5041E71F1000404DB4FF0AB
:100910000044404264EB0101141E73F1000405DB46
:100920001C464FF00043524263EB0403994208BF58
:10093000904230BD064C074D06E0E06840F00103F0
:1009400094E8070098471034AC42F6D3FFF738FC20
:10095000E4990000049A000080B584B00A4603467A
:10096000039002910298B0F9001000EE101AB8EE50
:10097000C00A40F2400CC2F2000C9CED001ADDF8F7
:100980000CE0BEF900E0AEEB010102EE101AB8EE89
:10099000C22A21EE021A30EE010ABDEEC00A10EEA4
:1009A000101A01800298B0F9021000EE101AB8EE89
:1009B000C00A9CED001ADDF80CE0BEF902E0AEEBD7
:1009C000010102EE101AB8EEC22A21EE021A30EE30
:1009D000010ABDEEC00A10EE101A41800298B0F96B
:1009E000041000EE101AB8EEC00A9CED001ADDF8F3
:1009F0000CC0BCF904C0ACEB010102EE101AB8EE59
:100A0000C22A21EE021A30EE010ABDEEC00A10EE33
:100A1000101A81800192009304B080BD80B582B02D
:100A200001460190019B43F20000C4F20400002241
:100A30000091114600F0F4FC43F28000C4F204007F
:100A4000016821F07F410160016841F07F41016050
:100A500043F25400C4F2040001210160FFE743F2B5
:100A60000000C4F2040000688003002801D4FFE7FE
:100A7000F5E743F20000C4F20400006880B202B05F
:100A800080BD000080B582B003F004FB40F2280E68
:100A9000C4F2000EDEF8000020F0DF00CEF8000007
:100AA000DEF8000040F04000CEF80000DEF8000064
:100AB000CEF800004FF61C60C4F203004FF0000EA9
:100AC00001907146724600F0BDFB019800F04EF8AF
:100AD0003C20C4F20000016821F00F0101600168B0
:100AE00041F00101016044F24400C4F200000168D9
:100AF00041F08071016043F25000C4F204000168CB
:100B000041F002010160FFE743F25000C4F204002B
:100B100000688007002801D5FFE7F5E743F20000F1
:100B2000C4F20400002100F0A7FC43F21410C4F248
:100B30000400016841F008010160FFE743F214106E
:100B4000C4F2040000684007002801D4FFE7F5E77D
:100B500003F088FA02B080BD40F24020C4F20000E9
:100B6000016841F4803101607047000084B00146A3
:100B70000390002002900190039800F01F000122D2
:100B800002FA00F0029040F20420C4F2000001904A
:100B90000398800F019A02EB800001900298019A5D
:100BA000136818431060009104B0704780B598B086
:100BB0000A4603461790169107920693FFF7CCFF5B
:100BC0001798002816D1FFE740F20020C4F2000079
:100BD000016841F001010160012000F0ADFB00213E
:100BE000119141F60031C0F2B70115910221149123
:100BF000059016E040F20020C4F20000016841F0C8
:100C000004010160102000F097FB4FF400211191C6
:100C100041F60031C0F2B7011591042114910490FE
:100C2000FFE7169846F20051C1F6CD51884200F216
:100C3000DA80FFE716984FF28001C0F2FA2188426D
:100C4000C0F0D180FFE74FF0FF300C9000200A90F9
:100C50000B9009901698089001201290FFE71298C7
:100C6000042800F29680FFE70C98002801D1FFE7E6
:100C70008FE01298032800F08780FFE7129804287D
:100C800004D1FFE708988000169009E01298022826
:100C900004D1FFE708984000169000E0FFE7FFE767
:100CA00002201490FFE7149820286CD8FFE70C98D6
:100CB000002801D1FFE766E015981499B0FBF1F028
:100CC0000F900F9840F60011C0F23D01884255D3B5
:100CD000FFE70F9841F20021C0F27A0188424DD817
:100CE000FFE702201390FFE7139840F201218842AA
:100CF00043D8FFE70F98C0F35D00139948430E9067
:100D00000E984FF28001C0F2FA21884230D3FFE7FB
:100D10000E9845F64011C0F27371884228D8FFE75B
:100D20000E981699B0EB910F06D9FFE70E98169919
:100D3000A0EB9100039005E016980E99C1EB90008E
:100D40000390FFE703980D900D980C9988420ED2FE
:100D5000FFE70D980C9014980A9013980B90129836
:100D600009900C98002801D1FFE706E0FFE7FFE7B4
:100D7000FFE7139801301390B6E7FFE7FFE71498F9
:100D8000013014908FE7FFE7FFE7129801301290CF
:100D900065E7119809994CF20002CFF6FF7202EB59
:100DA000813108430A994FF60062CFF6FF7202EBD9
:100DB000412108430B990239084340F24021C4F213
:100DC00000010860042000F0B7FA1599099ADDF8CF
:100DD00028E002FB0EF2B1FBF2F10B9A51434900FD
:100DE000109102901DE01798002808D1FFE740F20B
:100DF0004020C4F2000044F21E21016009E040F2EC
:100E00004020C4F2000044F21E21C0F2080101603B
:100E1000FFE7042000F090FA019000F0F7F810903E
:100E2000FFE7109818B080BD82B00146019001988C
:100E300040F20022C4F200021368184310600091CF
:100E400002B0704780B503F0CBF940F20C0EC2F24D
:100E5000000EDEF8000080BD80B582B003F0C0F95E
:100E600040F2342EC4F2000EDEF800E04FEA4E7E6F
:100E7000BEF1000F07D1FFE740F20C00C2F2000004
:100E80000068019052E040F23420C4F20000006893
:100E900000F00700012808D1FFE740F20C00C2F281
:100EA00000000068400801903FE040F23420C4F2A6
:100EB0000000006800F00700022808D1FFE740F2B8
:100EC0000C00C2F200000068800801902CE040F2A3
:100ED0003420C4F20000006800F00700032808D1A5
:100EE000FFE740F20C00C2F200000068C008019069
:100EF00019E040F23420C4F20000006800F007005E
:100F0000042808D1FFE740F20C00C2F2000000689C
:100F10000009019006E040F20C00C2F200000068F7
:100F20000190FFE7FFE7FFE7FFE7FFE7019802B067
:100F300080BD000080B582B003F052F940F2342E3B
:100F4000C4F2000EDEF800E01EF0700F07D1FFE7DC
:100F500040F20C00C2F200000068019052E040F242
:100F60003420C4F20000006800F07000102808D19E
:100F7000FFE740F20C00C2F2000000684008019058
:100F80003FE040F23420C4F20000006800F070003E
:100F9000202808D1FFE740F20C00C2F200000068F0
:100FA000800801902CE040F23420C4F20000006878
:100FB00000F07000302808D1FFE740F20C00C2F2C8
:100FC00000000068C008019019E040F23420C4F22B
:100FD0000000006800F07000402808D1FFE740F2F0
:100FE0000C00C2F2000000680009019006E040F227
:100FF0000C00C2F2000000680190FFE7FFE7FFE786
:10100000FFE7FFE7019802B080BD000087B0002035
:10101000069040F20120C0F20240009040F24020D1
:10102000C4F20000006805909DF8160010F0050F4E
:1010300003D0FFE70020069049E0059880030028D0
:1010400014D5FFE705980003002806D5FFE741F611
:101050000030C0F2B700049005E041F60030C0F265
:10106000B7000490FFE7049806902FE0059800036E
:10107000002806D5FFE741F60030C0F2B700049023
:1010800005E041F60030C0F2B7000490FFE7BDF87C
:101090001400694641EA90300078019005986FF39A
:1010A0005F2002300390059800F47850012101EB95
:1010B0005020029004988008039948430299019AAD
:1010C0005143B0FBF1F0C0000690FFE7FFE7069840
:1010D00007B0704780B586B00146059040F25020B9
:1010E000C4F20000006800F01000049005984BF274
:1010F0000102C0F671329042039106D3FFE74BF232
:101100000000C0F671300590FFE740F20020C4F205
:101110000000016841F004010160102102900846BE
:1011200000F00AF940F21021C4F20001D1F800E009
:101130004EF0070EC1F800E040F22021C4F2000199
:10114000D1F800E02EF00F0EC1F800E00299D1F8BE
:1011500000E04FEACE7EBEF1000F019006D0FFE71F
:1011600005990020FFF722FD05900EE005994FF448
:101170000020FFF71BFD059040F25020C4F2000054
:10118000006800F010000490FFE70220002100F04A
:1011900011F80498002809D1FFE740F20020C4F2BA
:1011A0000000016821F004010160FFE7059806B026
:1011B00080BD000080B586B00A46034605900491C4
:1011C00040F25020C4F20000006800F010000390CC
:1011D00040F20020C4F20000016841F00401016007
:1011E00010200292019300F0A7F840F21021C4F2FF
:1011F00000010A6842F007020A6040F22022C4F2AD
:101200000002136823F00F03DDF810E043EA0E0339
:1012100013600A6822F00702059B1A430A600090D7
:1012200002F0DEFF0398002809D1FFE740F200201A
:10123000C4F20000016821F004010160FFE706B07C
:1012400080BD000080B588B013468C468646079066
:10125000069105920020049003900798800A0006EA
:1012600000280293CDF804C0CDF800E033D0FFE7AA
:101270000798C0F38140022806D1FFE740F22C20F6
:10128000C4F20000039017E00798C0F381400328E0
:1012900006D1FFE740F23020C4F2000003900AE0DC
:1012A000BDF81E0000F00C0040F22021C4F2000145
:1012B00008430390FFE7FFE7039800680799C1F32D
:1012C0008722C1F3441102FA01F1884305990843CA
:1012D00003990860FFE70798400E4007002819D0DF
:1012E000FFE707980C2101EA906040F21021C4F258
:1012F000000108430490049800680799C1F3426212
:10130000C1F3045102FA01F1884306990843049994
:101310000860FFE708B080BD82B00146019040F24E
:101320001020C4F20000026822F03802019B1A4328
:101330000260009102B0704784B0014603904FF202
:101340008050C0F220000290012001900091FFE740
:1013500040F25020C4F2000000680399084088421F
:101360000AD0FFE70298411E0291002803DCFFE744
:101370000020019000E0EBE7019804B07047000006
:10138000B0B588B09C4696460C4605460790069137
:1013900005920493059841F20801C4F20301086024
:1013A0000798069908430499084340F0010041F268
:1013B0000001C4F203010860086840F00200086000
:1013C000CDF80CC0CDF808E00194009508B0B0BD90
:1013D00084B0B0EE601AB0EE402A8DED030ACDED78
:1013E000020A9DED030ADDED020A9FED0C3A20EEA4
:1013F000833AF7EE000A80EE833A30EE033A80EE4D
:10140000030A40F24000C2F2000080ED000A8DEDB8
:10141000011A8DED002A04B0704700BFDB0FC940F0
:10142000B0B588B09C4696460C4605460790069196
:10143000059204930798069900EB8100D0F880107C
:101440004FF6C072CFF6E0721140C0F880100598D8
:10145000049908430799069A01EB8201D1F880208C
:101460001043C1F88000CDF80CC0CDF808E001941D
:10147000009508B0B0BD000084B00A460346039052
:1014800002910398016D21F480710165029803991E
:10149000D1F850C040EA0C0040F00100086501920C
:1014A0000093FFE70398D0F81001C007002801D18E
:1014B000FFE7F7E704B0704780B58AB002F0EAFDB5
:1014C00040F2100ECAF2002E0020099070460999D1
:1014D000099ACDF820E0FFF7B5FE0898FFF746FB24
:1014E0003820C4F20000016821F470210160016815
:1014F00041F430210160016821F47041016001680C
:1015000041F430410160016821F4706101600168BB
:1015100041F430610160016821F0F001016001686F
:1015200041F0B001016048F20000C4F20500012161
:101530004CF2503207900692099B00F027F80221E6
:10154000079A05901046069A099B00F01FF80321A0
:10155000079A04901046069A099B00F017F8042198
:10156000079A03901046069A099B00F00FF81E2177
:10157000079A02901046019100F0D4F8079801995B
:1015800000F0E2F802F06EFD0AB080BDB0B58EB09A
:101590009C4696460C4605460D900C910B920A937C
:1015A000012006904FF6FF7005900D9848F200015B
:1015B000C4F205018842CDF810C0CDF80CE00294C9
:1015C000019509D1FFE740F21820C4F2000000683D
:1015D00000F00100099008E040F21820C4F2000079
:1015E000006800F002000990FFE70998002804D184
:1015F000FFE7FFF70BFD089013E002F0F1FDDDF8C7
:1016000034E048F20000C4F20500864504D1FFE74B
:10161000FFF722FC089003E0FFF78CFC0890FFE73F
:10162000FFE701200690FFE7069840F6FE7188422A
:1016300015D8FFE708980B99B0FBF1F00699B0FBBD
:10164000F1F00790BDF81E00002803D1FFE70798CE
:10165000059004E0FFE7069801300690E4E708985B
:101660000699059A5143B0FBF1F0079006980138AE
:10167000069006980D990C9A6FF0020303EA420255
:10168000114448610D9840680C994A00012303FAFF
:1016900002F24FF4803C0CFA01F1114388430D999A
:1016A000486005980138059005980D990C9A01EB52
:1016B000820108630A9805990131484348F21F5195
:1016C000C5F2EB11A0FB010149090D9ADDF830C00C
:1016D00002EB8C0211650D99D1F8B0100C9A5200F2
:1016E0004FF0011C0CFA02FE21EA0E014FF0020E2F
:1016F0000EFA02F211430D9AC2F8B0100D99D1F80A
:10170000B4100C9A52000CFA02FC21EA0C0103FA04
:1017100002F211430D9AC2F8B410079900900846DE
:101720000EB0B0BD84B00A46034603900291029801
:101730000399D1F8D8C040EA0C00C1F8D800019252
:10174000009304B07047000084B00A46034603903B
:10175000029102980399D1F820C040EA0C00086277
:101760000192009304B0704780B500F073FF80BD14
:1017700080B588B013468C4686468DF81F000691CA
:10178000ADF816200493CDF80CC0CDF808E0FFE7C3
:10179000BDF81600002817D0FFE79DF81F00411C78
:1017A0008DF81F10002101900846019900F00EF8F5
:1017B000069901F1010ECDF818E00870BDF8160089
:1017C0000138ADF81600E3E708B080BD80B586B0FB
:1017D0000A4603468DF817008DF8161000208DF884
:1017E000150004920393029002F04EF99DF8170041
:1017F000A02141EA4000C0B202F00AF902F084F9E7
:101800009DF816100190084602F002F902F03CF92A
:1018100002F03AF99DF81700A12141EA4000C0B258
:1018200002F0F6F802F070F902990090084602F012
:10183000A3F88DF8150002F047F99DF8150006B0E1
:1018400080BD000080B588B013468C4686468DF872
:101850001F000691ADF816200493CDF80CC0CDF80A
:1018600008E0FFE7BDF81600411EADF8161000288D
:1018700021D0FFE79DF81F10069802780020019004
:1018800000F01CF89DF81F100198FFF79FFF8DF8DE
:1018900015009DF8150006990978884202D0FFE7E7
:1018A00000BFFFE79DF81F0001308DF81F0006986C
:1018B00001300690D6E708B080BD000080B588B042
:1018C00013468C4686468DF81F008DF81E108DF845
:1018D0001D200693CDF814C0CDF810E002F0D4F826
:1018E0009DF81F00A02141EA4000C0B202F090F82C
:1018F00002F00AF99DF81E100390084602F088F8DD
:1019000002F002F99DF81D100290084602F080F8DE
:1019100002F0FAF8019002F0D7F808B080BD00009C
:1019200044F22000C4F2000001680160704700002A
:1019300080B587B013468C46864606900591049282
:10194000002003900293CDF804C0CDF800E0FFE73B
:1019500003980F281BD8FFE705980399012202FA84
:1019600001F108420ED0FFE706980068039949008C
:1019700003228A409043049A02FA01F1084306992F
:101980000860FFE7FFE7039801300390E0E707B046
:1019900080BD000080B587B013468C468646069011
:1019A00005910492002003900293CDF804C0CDF875
:1019B00000E0FFE703980F281BD8FFE7059803997D
:1019C000012202FA01F108420ED0FFE70698006BEF
:1019D0000399490003228A409043049A02FA01F1D4
:1019E000084306990863FFE7FFE703980130039077
:1019F000E0E707B080BD000084B00A4603460390CC
:101A000002910398B0F9000000EE100AB8EEC00A87
:101A10009FED111A20EE010A029880ED000A03984A
:101A2000B0F9020000EE100AB8EEC00A20EE010A7A
:101A3000029880ED010A0398B0F9040000EE100A44
:101A4000B8EEC00A20EE010A029880ED020A019267
:101A5000009304B0704700BF89A18B3A10B588B0DD
:101A60000A460346079006910020059004900390D3
:101A70008DF80B000799098840F2480CC2F2000C5F
:101A80009CF800E040F24A04C2F2000424F81E1060
:101A9000079949889CF800E040F24E04C2F2000425
:101AA00024F81E10079989889CF800C040F2520E55
:101AB000C2F2000E2EF81C108DF80B00019200935C
:101AC000FFE79DF80B00012828DCFFE79DF80B00DD
:101AD00040F24A01C2F2000131F9100005990844B0
:101AE00005909DF80B0040F24E01C2F2000131F961
:101AF00010000499084404909DF80B0040F2520134
:101B0000C2F2000131F91000039908440390FFE785
:101B10009DF80B0001308DF80B00D2E7059800EB23
:101B2000D070400806990880049800EBD0704008F7
:101B300006994880039800EBD07040080699888089
:101B400040F24800C2F200000178013101700078D3
:101B5000022807D1FFE740F24800C2F2000000214E
:101B60000170FFE708B010BD44F24010C4F200005D
:101B7000016821F0F00101607047000041F6A530D6
:101B8000C0F2000004207146084204D0EFF309803F
:101B9000714600F007B8EFF3088000F003B8FFE7E4
:101BA000FEE7000080B584B00146039049F6CD0001
:101BB000C0F20000029106F009FC0399019008466A
:101BC00004F0EAFBFFE7FEE7B0B588B09C46964616
:101BD0000C4605468DF81E008DF81D108DF81C2052
:101BE0000693CDF814C0CDF810E00394029501F0EF
:101BF0004BFF9DF81E004000C0B201F009FF01F04C
:101C000083FF002807D0FFE701F05EFF4FF0010ED1
:101C10008DF81FE03DE09DF81D0001F0F9FE01F098
:101C200073FF019001F030FF9DF81E00400001306D
:101C3000C0B201F0EDFE01F067FF0090FFE79DF8F4
:101C40001C0000281ED0FFE79DF81C00012808D1C9
:101C5000FFE7002001F090FEDDF818E08EF80000AC
:101C600007E0012001F088FEDDF818E08EF80000A2
:101C7000FFE79DF81C0001388DF81C000698013024
:101C80000690DCE701F020FF4FF0000E8DF81FE01A
:101C9000FFE79DF81F0008B0B0BD00000000000085
:101CA00010B5A8B00146B0EE623AB0EE424AB0EECE
:101CB000615AB0EE416AB0EE607AF0EE403A8DEDD6
:101CC000270ACDED260A8DED251ACDED241A8DEDCE
:101CD000232ACDED222A219040F23000C2F20000EA
:101CE0000268199240F29C42C2F2000213681893F3
:101CF00040F2A043C2F20003D3F800C0CDF85CC0AC
:101D000040F2A44CC2F2000CDCF800E0CDF858E040
:101D10009DED240A20EE000A9DED231A21EE011A02
:101D200030EE010A9DED221A21EE011A30EE010A71
:101D300015918DED143A8DED134A8DED125A8DEDFE
:101D4000116A8DED107ACDED0F3A0E900D920C9335
:101D5000CDF82CC002F0DEFC8DED200A9DED240AAA
:101D60009DED201A20EE010A8DED240A9DED230A37
:101D70009DED201A20EE010A8DED230A9DED220A29
:101D80009DED201A20EE010A8DED220A0D9890EDAE
:101D9000000A0B9991ED001A20EE010A0E9A92EDBD
:101DA000001A0C9B93ED002A21EE021A30EE410A34
:101DB00030EE000A8DED1F0A92ED000A90ED001A38
:101DC00020EE010A93ED001A91ED002A21EE021A8D
:101DD00030EE010A30EE000A8DED1E0A92ED000A87
:101DE00020EE000A90ED001A21EE011A30EE410AB1
:101DF00093ED001A21EE011A30EE410A91ED001A1E
:101E000021EE011A30EE010A8DED1D0A9DED230A27
:101E10009DED1D1A20EE010A9DED221A9DED1E2A50
:101E200021EE021A30EE410A8DED1C0A9DED220AC8
:101E30009DED1F1A20EE010A9DED241A9DED1D2A2D
:101E400021EE021A30EE410A8DED1B0A9DED240AA7
:101E50009DED1E1A20EE010A9DED231A9DED1F2A0D
:101E600021EE021A30EE410A8DED1A0A40F2941C5E
:101E7000C2F2000C9CED000A9DED1C1A9FEDE42AB5
:101E800021EE021A30EE010A8CED000A40F2981E93
:101E9000C2F2000E9EED000A9DED1B1A21EE021A01
:101EA00030EE010A8EED000A40F29C14C2F20004EA
:101EB00094ED000A9DED1A1A21EE021A30EE010A85
:101EC00084ED000A9DED270A9DED1C1A30EE010AF3
:101ED0009CED001A30EE010A8DED270A9DED260AD1
:101EE0009DED1B1A30EE010A9EED001A30EE010A3C
:101EF0008DED260A9DED250A9DED1A1A30EE010A98
:101F000094ED001A30EE010A8DED250A9DED190AB7
:101F10009DED181A9DED273A21EE431A9DED173AD3
:101F20009DED264A23EE043A31EE431A9DED163A12
:101F30009DED254A23EE043A31EE431A9FEDB53A62
:101F400021EE031A30EE010A82ED000A9DED180A17
:101F50009DED191A9DED274A21EE041A9DED174AB1
:101F60009DED255A24EE054A31EE041A9DED164AE0
:101F70009DED265A24EE054A31EE441A21EE031A4D
:101F800030EE010A80ED000A9DED170A9DED191A49
:101F90009DED264A21EE041A9DED184A9DED255A25
:101FA00024EE054A31EE441A9DED164A9DED275A5E
:101FB00024EE054A31EE041A21EE031A30EE010A2E
:101FC00083ED000A9DED160A9DED191A9DED254A37
:101FD00021EE041A9DED184A9DED265A24EE054A7D
:101FE00031EE041A9DED174A9DED275A24EE054A5D
:101FF00031EE441A21EE031A30EE010A81ED000A97
:1020000092ED000A20EE000A90ED001A21EE011A6E
:1020100030EE010A93ED001A21EE011A30EE010AAA
:1020200091ED001A21EE011A30EE010A8DED0A2A17
:1020300002F070FB8DED200A0E9890ED000A9DEDE8
:10204000201A20EE010A80ED000A0D9991ED000A98
:102050009DED201A20EE010A81ED000A0C9A92ED06
:10206000000A9DED201A20EE010A82ED000A0B9B6A
:1020700093ED000A9DED201A20EE010A83ED000A7F
:1020800090ED000A91ED001A20EE012A92ED003A3F
:1020900093ED004A23EE045A32EE052A32EE022A6C
:1020A00012EE100A8DED090A8DED081A8DED073A32
:1020B0008DED064AFEF79BFA41EC100B9DED091AD7
:1020C00021EE012A9DED083A23EE034A32EE442A1E
:1020D0009DED074A24EE045A32EE452A9DED065A3C
:1020E00025EE056A32EE062A12EE100A8DED040B7B
:1020F000FEF77DFA41EC110B9DED040B06F0ACFCF4
:1021000051EC100B9FED400B53EC102B03920293FC
:10211000FEF78CF941EC100B51EC100BFEF77AFA3C
:1021200040F2A841C2F2000108600E9890ED002A2A
:102130000C9A92ED003A22EE032A0D9B93ED003AA1
:10214000DDF82CC09CED004A23EE043A32EE432A1F
:1021500032EE022A12EE100A0191FEF748FA41EC23
:10216000100B06F05DF951EC100B039A029BFEF781
:102170005DF941EC100B51EC100BFEF74BFA40F2FD
:10218000FC11C2F20001086040F2F410C2F200003B
:10219000B0F9040002EE100AB8EEC22A9FED1E3A12
:1021A00022EE032A9DED0A3A22EE032A4CF6DC5079
:1021B000C2F2000090ED004A34EE022A80ED002ABF
:1021C00091ED002A40F2A811C2F2000191ED094AF6
:1021D00032EE442A219A82ED002A019A92ED002AD9
:1021E00091ED0A4A32EE442A219B83ED012A90EDBB
:1021F000002A91ED0B4A32EE442A219880ED022A02
:1022000028B010BD00BF00BF00000020DCA54C407E
:102210006F12833A6F12033AF1FF793D80B590B0A7
:1022200001460F900A9102F04BFA0B90FFE70BA8C2
:10223000012104F0A9FC04F0D7FE40F28810C2F29C
:102240000000811C021D099000F018F940F2E01115
:10225000C2F200018A1C01F1040E089008460791A1
:102260001146724600F044F9082106900846FEF730
:10227000D5FB00EE100AB8EE400A9FED361A20EEAC
:10228000010A9FED351A80EE010A40F2F800C2F211
:10229000000080ED000A05F021FF40F28E11C2F22D
:1022A0000001099A059010460491FEF755FB40F293
:1022B000F410C2F200000799039008460399FFF753
:1022C000CDFB40F2A810C2F20000018E039AB2F8D2
:1022D00000E0AEEB01011180418EB2F802E0AEEBFE
:1022E00001015180808E9188081A908040F2E81098
:1022F000C2F20000029010460299FFF77DFB02989F
:1023000090ED000AD0ED010A90ED021A0499B1F99E
:102310000020B1F902E0B1F9043002EE102AF8EE23
:10232000C21A02EE10EAB8EEC22A03EE103AF8EE34
:10233000C32A0CAA10460192FFF7B2FC40F24400F7
:10234000C2F20000006800220223019905F064F83F
:1023500000906CE73233533A62A1863F80B582B079
:1023600044F24000C4F200004FF480410122019089
:102370000092FFF7DDFA4FF400410198009AFFF751
:10238000D7FA44F67C00C4F200000021016044F654
:102390007800C4F20000016002B080BD80B592B048
:1023A00068206B21802210900F910E9200F09EF910
:1023B00064210D90084602F0FBF8002010990C9063
:1023C00008460F990C9A00F091F91B211822DDF8AC
:1023D00040E00B90704600F089F91C21109A0A9099
:1023E00010460C9A00F082F932210990084600F05C
:1023F000FFF83821109A089010460C9A00F076F9F0
:102400006A21109A079010460C9A00F06FF9232168
:10241000109A069010460C9A00F068F93721109A2D
:10242000059010460E9A00F061F97521109A0490FB
:10243000104600F025F98DF847009DF84700682800
:1024400016D1FFE768206B210122039000F04EF9BE
:102450006C210022DDF80CE00290704600F046F995
:102460004FF47A710190084600F0C2F8009001E044
:10247000FFE7FEE7002012B080BD000010B588B075
:1024800013468C46864607900691059268203B21AC
:1024900006220DF10E0402932346CDF804C0CDF8B8
:1024A00000E0FFF791FB8DF80D009DF80D0000286E
:1024B00019D1FFE79DF80E009DF80F1041EA0020AA
:1024C000079908809DF810009DF8111041EA00203E
:1024D000069908809DF812009DF8131041EA00202B
:1024E00005990880FFE79DF80D0008B010BD0000B9
:1024F00010B588B013468C46864607900691059223
:102500006820432106220DF10E0402932346CDF8E4
:1025100004C0CDF800E0FFF757FB8DF80D009DF8E3
:102520000D00002819D1FFE79DF80E009DF80F104F
:1025300041EA0020079908809DF810009DF81110CD
:1025400041EA0020069908809DF812009DF81310BA
:1025500041EA002005990880FFE79DF80D0008B0CA
:1025600010BD000080B582B00146ADF80600002025
:102570008DF80500BDF80600BC28009104DBFFE7DC
:1025800001208DF805002BE0BDF80600622804DB71
:10259000FFE702208DF8050021E0BDF806002A289B
:1025A00004DBFFE703208DF8050017E0BDF8060007
:1025B000142804DBFFE704208DF805000DE0BDF8CA
:1025C00006000A2804DBFFE705208DF8050003E07C
:1025D00006208DF80500FFE7FFE7FFE7FFE7FFE7CD
:1025E0009DF8052068201A2100F080F802B080BD17
:1025F00080B582B00146ADF80600BDF80600B0F522
:102600007A7F009105DDFFE74FF47A70ADF80600A0
:10261000FFE7BDF80600032804DCFFE70420ADF85F
:102620000600FFE7BDF806004FF47A71B1FBF0F049
:1026300001388DF805009DF805206820192100F06B
:1026400055F88DF80500BDF806004008FFF78AFF31
:1026500002B080BD80B582B044F24000C4F20000F8
:102660004FF48061012201900092FFF761F94FF46D
:1026700000610198009AFFF75BF902B080BD00008D
:1026800080B586B00A4603468DF817008DF81610FF
:102690000492039301F0F8F99DF817004000C0B2CE
:1026A00001F0B6F901F030FA9DF8161002900846D4
:1026B00001F0AEF901F028FA019001F0E5F99DF87A
:1026C000170040000130C0B201F0A2F901F01CFA7D
:1026D00000210090084601F04FF98DF8150001F037
:1026E000F3F99DF8150006B080BD000080B584B0F8
:1026F00013468C4686468DF80E008DF80D108DF829
:102700000C200293CDF804C0CDF800E001F0BCF934
:102710009DF80E004000C0B201F07AF901F0F4F922
:10272000002807D0FFE701F0CFF94FF0010E8DF838
:102730000FE026E09DF80D0001F06AF901F0E4F9E0
:10274000002807D0FFE701F0BFF94FF0010E8DF828
:102750000FE016E09DF80C0001F05AF901F0D4F9F1
:10276000002807D0FFE701F0AFF94FF0010E8DF818
:102770000FE006E001F0A8F94FF0000E8DF80FE031
:10278000FFE79DF80F0004B080BD000080B588B061
:10279000A5208DF81C004FF0A5300690302006A92A
:1027A00005220491039200F049FA10210290084694
:1027B0000499039A00F0A2F900218DF817100190F6
:1027C000FFE79DF8170004280FDCFFE79DF81700CE
:1027D00006A9085CA52801D0FFE706E0FFE79DF801
:1027E000170001308DF81700EBE79DF8170005285A
:1027F00004D0FFE701208DF81F0003E000208DF8D2
:102800001F00FFE79DF81F0008B080BD80B58AB0AB
:1028100001F06CFC40F20D0EC6F2406E102000215B
:1028200009907046099A08911146089ACDF81CE063
:10283000FEF708FD0798FEF799F93020C4F2000072
:10284000016821F0F0010160016841F04001016080
:10285000016821F00F010160016841F0040101608D
:10286000016821F470610160016841F480610160D8
:10287000016821F470410160016841F48041016008
:102880004FF0402001210690099A05911146059AC2
:10289000FFF74EF820200699049008460499089AFC
:1028A000FFF746F806980499059AFFF773F868460B
:1028B00045F24041C0F28901016041F20000C4F2DA
:1028C000060004220823089901F060F941F208018A
:1028D000C4F206010A6822F008020A60039002911D
:1028E00001F0D0FB44F61000C4F20000089901602A
:1028F0000298026842F0050222F008020260FFF727
:1029000045FF002802D0FFE7FFE7FEE70AB080BDE1
:1029100080B5A4B001468DF88F0041F20800C4F2E2
:102920000600026842F0010222F00C02026049F641
:102930002500C0F200003022052322901046229A82
:10294000219111461A46209300F078F949F62001AA
:10295000C0F200012A221F901046209A00F06EF962
:10296000212101221E90084611461D9200F0B4F963
:1029700022211C9008461D9900F0AEF924211A224C
:102980001B900846114600F0A7F9252132221A9023
:102990000846114600F0A0F926210F22199008469A
:1029A000114600F099F99DF88F10012918900ED169
:1029B000FFE731202021179100F08EF90F21DDF87B
:1029C0005CE01690704600F087F915908AE09DF85B
:1029D0008F0002280ED1FFE731202021149100F052
:1029E0007BF90E21DDF850E01390704600F074F989
:1029F000129076E09DF88F00032838D1FFE7E120A0
:102A0000FF21119100F068F9E22110900846119918
:102A100000F062F920214FF03F0E0F9008467146FA
:102A200000F05AF941F20001C4F206014FF0500ED5
:102A30000E9008460D91714601F0D4FA7321DDF82D
:102A400034E00C90704601F0CDFA3C214FF0010EBD
:102A50000B900846714600F03FF93D214FF0070EFC
:102A60000A900846714600F037F9099038E02020B6
:102A70002E2100F031F9E1214FF0FF0E08900846B9
:102A80007146CDF81CE000F027F9E22106900846D7
:102A9000079900F021F941F20001C4F206014FF05C
:102AA000500E059008460491714601F09BFA73217F
:102AB000DDF810E00390704601F094FA3C214FF0ED
:102AC000010E02900846714600F006F93D214FF0D4
:102AD000070E01900846714600F0FEF80090FFE7EF
:102AE000FFE7FFE741F20800C4F20600016841F089
:102AF000050121F00801016024B080BD80B586B0D9
:102B000013468C4686468DF8170004918DF80F20E9
:102B100041F20800C4F20600016841F0010121F011
:102B20000C0101609DF8171041F20000C4F206008C
:102B30000293CDF804C0CDF800E001F053FA8DF80F
:102B40000E0000208DF80D00FFE79DF80D009DF8A8
:102B50000F10884213DAFFE741F20000C4F20600CA
:102B6000FF2101F03FFA04999DF80DE001F80E00F5
:102B7000FFE79DF80D0001308DF80D00E5E741F20B
:102B80000800C4F20600016841F0050121F00801C7
:102B900001609DF80E0006B080BD000080B586B0D3
:102BA00001468DF8170041F20800C4F206000268E1
:102BB00042F0010222F00C0202609DF8172041F25F
:102BC0000003C4F2060304901846039111460293D1
:102BD00001F008FAFF21029A0190104601F002FA72
:102BE0008DF816000498016841F0050121F00801F4
:102BF00001609DF8160006B080BD000080B586B06B
:102C00000146059044F61000C4F200000022026064
:102C1000059B4FF0A00C4FF0200E049060460391EE
:102C200019460292724600F009F80121049A1160D7
:102C300002990190084606B080BD000080B588B0BA
:102C400013468C4686468DF81F0006918DF8172096
:102C500041F20800C4F20600016841F0010121F0D0
:102C60000C0101609DF81F1041F20000C4F2060043
:102C70000493CDF80CC0CDF808E001F0B3F98DF85D
:102C8000160000208DF81500FFE79DF815009DF84F
:102C90001710884212DAFFE70698411C0691017866
:102CA00041F20000C4F2060001F09CF90190FFE738
:102CB0009DF8150001308DF81500E6E741F2080097
:102CC000C4F20600016841F0050121F0080101602D
:102CD0009DF8160008B080BD80B586B00A46034650
:102CE0008DF817008DF8161041F20800C4F20600A6
:102CF000016841F0010121F00C0101609DF81710FD
:102D000041F2000CC4F2060C049060460392029358
:102D1000CDF804C001F066F98DF815009DF8161085
:102D2000019801F05FF904990A6842F0050222F067
:102D300008020A609DF815200090104606B080BD7C
:102D400080B5A0B001461F901391FFE740F26400E8
:102D5000C2F20000006814A94FF0FF3204F0AAFD8F
:102D600041F20001C4F203010A6842F001020A6064
:102D70001290FFE741F20800C4F203004FF0FF3168
:102D8000016041F20000C4F20300016841F0020159
:102D90000160FFE700208DF87300FFE79DF87300E6
:102DA000062811DCFFE79DF8730014A951F82000F4
:102DB00041F20401C4F203010860FFE79DF87300CB
:102DC00001308DF87300E9E741F20C00C4F2030012
:102DD00000681E901B981D9041F20000C4F2030091
:102DE000016821F0010101609DF8510001461128A0
:102DF000119100F2D6801199DFE801F0093017D364
:102E0000D3D3D3D3D3D3D3D3D3D3D3D394AB40F26D
:102E1000E400C2F20000DDF85210DDF85620DDF8C3
:102E20005A30836042600160BCE044F67800C4F22E
:102E30000000012101609DF85200012807D1FFE741
:102E400040F2A810C2F2000001F0B4FDFFE744F622
:102E50007800C4F2000000210160A3E09DF8520058
:102E600001460128109108D0FFE71098022831D0C0
:102E7000FFE71098032852D052E044F67800C4F2DD
:102E800000000121016040F2FC11C2F2000109685A
:102E900040F2A812C2F20002516240F2A841C2F20E
:102EA0000001096891624CF6DC51C2F20001096828
:102EB000D1620F900E9204F097F8002038220D9006
:102EC0000E99FEF7BFFC05F009F90D990F9A1160F4
:102ED0000C9026E044F67800C4F200000121016065
:102EE00040F2E011C2F200010A8840F2A813C2F2D7
:102EF00000031A864A885A86898899860B900A9315
:102F000004F072F80020382209900A99FEF79AFC22
:102F100005F0E4F809990B9A1160089001E000E0CF
:102F2000FFE73FE044F67800C4F2000001210160B1
:102F300014A9023140F2A812C2F200021223079033
:102F400010461A46FDF7A7F90021079A116006906E
:102F500028E044F67800C4F200000121016014A9C1
:102F6000023140F2A812C2F2000202F112034FF045
:102F7000120C0590184604926246FDF78CF90390F6
:102F800004F032F80020382202900499FEF75AFC2F
:102F900005F0A4F8019000F0EBFA0298059908609A
:102FA00000E0FFE7D2E6000080B592B00146119044
:102FB0000791FFE704F018F80720FFF7EFFD8DF801
:102FC00023009DF823004006002815D5FFE7612067
:102FD00009A920220691FFF791FD40F26401C2F297
:102FE000000109684FF0FF3200230590084606995A
:102FF00004F012FA0490FFE79DF82300C0060028B1
:103000000DD5FFE79DF82300C007002806D0FFE795
:10301000E120FF21FFF760FE0390FFE7FFE79DF847
:1030200023102720FFF758FE029005F057F80421DF
:103030000190084601F0BCFABCE7000080B58EB0F4
:1030400001460D900491FFE740F26C00C2F20000CF
:10305000006805A94FF0FF32039104F02BFC0290A9
:1030600003F0C2FF0398FFF7C9FD019005F036F8A1
:103070000090E9E784B001460390039800F0070050
:1030800001904EF60C50CEF2000002680292029AB5
:103090004FF6FF031A400292029A019B42EA032272
:1030A0000023C0F2FA531A430292029A026000917E
:1030B00004B0704780B59CB001461B90139100F09E
:1030C00057FAFFE740F24400C2F20000006815A979
:1030D0004FF0FF3204F0EEFB40F2E401C2F20001D7
:1030E0000A8800EE102AB8EE400A8DED140A4A88CC
:1030F00000EE102AB8EE400A9FEDDB1A31EE400ACE
:103100009FEDDA2ABAEE043AB2EE044AF0EE420A31
:103110008DED121AF0EE431A8DED112AB0EE442A0D
:1031200010900F918DED0E3A8DED0D4A01F08EFB52
:1031300040F2B040C2F2000080ED000A0F998A8888
:1031400000EE102AB8EE400ADDED110A9DED121ACC
:10315000DDED0E1A9DED0D2A0C9001F077FB40F28B
:10316000AC40C2F2000080ED000A0F99CA8800EE60
:10317000102AB8EE400ADDED110A9DED121ADDEDC0
:103180000E1A9DED0D2A0B9001F060FB40F2B44049
:10319000C2F2000080ED000A0B9991ED000A9DED4E
:1031A000151A30EE410A40F27402C2F200020A908F
:1031B000104601F07BFE8DED1A0A0C9890ED000A86
:1031C0009DED161A30EE410A40F2AC00C2F200004A
:1031D00001F06CFE8DED190A0A9890ED000A9DED44
:1031E000171A30EE410A40F2FC00C2F2000001F072
:1031F0005DFE8DED180A0F98C1881E2931DCFFE7AE
:1032000040F2E400C2F20000C07A002829D0FFE7B3
:1032100040F2E400C2F20000407A002821D0FFE72B
:1032200040F23400C2F20000007801280CD1FFE720
:1032300044F67C00C4F200000021016040F234003A
:10324000C2F2000001700BE044F67C00C4F2000002
:103250000121016040F23400C2F200000170FFE77A
:10326000FFE740F23400C2F20000007801281CD1D0
:10327000FFE744F67C00C4F200000121016048F23F
:103280005400C4F205000021016048F25800C4F265
:103290000500016048F25C00C4F20500016048F2DC
:1032A0006000C4F2050001605AE103F09DFE9DED4F
:1032B000140A9DED1A1A30EE010A9DED191A30EE2E
:1032C000010A9DED181A30EE010A9FEDA81AB4EE1E
:1032D000C10AF1EE10FA05DDFFE79FEDA40A8DEDBE
:1032E000090A2EE09DED140A9DED1A1A30EE010A2E
:1032F0009DED191A30EE010A9DED181A30EE010A03
:10330000B5EEC00AF1EE10FA05DAFFE79FED960A76
:103310008DED080A10E09DED140A9DED1A1A30EEAD
:10332000010A9DED191A30EE010A9DED181A30EED2
:10333000010A8DED080AFFE79DED080A8DED090AE7
:10334000FFE79DED090ABCEEC00A48F25400C4F242
:10335000050080ED000A9DED140A9DED1A1A30EE6D
:10336000410A9DED191A30EE010A9DED181A30EE52
:10337000410A9FED7E1AB4EEC10AF1EE10FA05DDA6
:10338000FFE79FED7A0A8DED070A2EE09DED140A06
:103390009DED1A1A30EE410A9DED191A30EE010A20
:1033A0009DED181A30EE410AB5EEC00AF1EE10FAA2
:1033B00005DAFFE79FED6C0A8DED060A10E09DED42
:1033C000140A9DED1A1A30EE410A9DED191A30EEDD
:1033D000010A9DED181A30EE410A8DED060AFFE74D
:1033E0009DED060A8DED070AFFE79DED070ABCEE8D
:1033F000C00A48F25800C4F2050080ED000A9DEDB5
:10340000140A9DED1A1A30EE410A9DED191A30EE9C
:10341000410A9DED181A30EE010A9FED541AB4EEE0
:10342000C10AF1EE10FA05DDFFE79FED500A8DEDC0
:10343000050A33E09DED140A9DED1A1A30EE410A9B
:103440009DED191A30EE410A9DED181A30EE010A71
:10345000B5EEC00AF1EE10FA0ADAFFE79FED420A74
:103460008DED040A15E000BF00803B450000000020
:103470009DED140A9DED1A1A30EE410A9DED191AC0
:1034800030EE410A9DED181A30EE010A8DED040A66
:10349000FFE79DED040A8DED050AFFE79DED050AA6
:1034A000BCEEC00A48F25C00C4F2050080ED000AE0
:1034B0009DED140A9DED1A1A30EE010A9DED191AC0
:1034C00030EE410A9DED181A30EE410A9FED271AA1
:1034D000B4EEC10AF1EE10FA05DDFFE79FED230A15
:1034E0008DED030A2EE09DED140A9DED1A1A30EEC3
:1034F000010A9DED191A30EE410A9DED181A30EEC1
:10350000410AB5EEC00AF1EE10FA05DAFFE79FEDC9
:10351000160A8DED020A10E09DED140A9DED1A1AAF
:1035200030EE010A9DED191A30EE410A9DED181A90
:1035300030EE410A8DED020AFFE79DED020A8DEDA6
:10354000030AFFE79DED030ABCEEC00A48F26000E3
:10355000C4F2050080ED000A04F0C0FD0190FFE711
:10356000022001F025F8ADE50000000000806D4567
:1035700080B58CB040F2A810C2F20000B0F9001083
:1035800000EE101AB8EEC00A9FED561A20EE010A9E
:103590008DED090AB0F9021000EE101AB8EEC00A5B
:1035A00020EE010A8DED0A0AB0F9041000EE101A9F
:1035B000B8EEC00A20EE010A8DED0B0ADDED090A16
:1035C0009DED0A0ADDED0B1A40F27401C2F2000112
:1035D0009FED452A9FED453A089008468DED070A74
:1035E000B0EE420A9DED074A8DED061AB0EE441A80
:1035F0008DED052AB0EE432A04918DED033A01F0DA
:10360000F7FB0898B0F9061000EE101AB8EEC00AE1
:103610009DED061A20EE010A8DED090AB0F9081099
:1036200000EE101AB8EEC00A20EE010A8DED0A0A6B
:10363000B0F90A1000EE101AB8EEC00A20EE010A26
:103640008DED0B0ADDED090A9DED0A1ADDED0B1A71
:1036500040F2AC01C2F2000108469DED050A9DED65
:10366000032A029101F0C4FB0898B0F90C1000EE97
:10367000101AB8EEC00A9DED061A20EE010A8DED73
:10368000090AB0F90E1000EE101AB8EEC00A20EECA
:10369000010A8DED0A0AB0F9101000EE101AB8EE0A
:1036A000C00A20EE010A8DED0B0ADDED090A9DED41
:1036B0000A1ADDED0B1A40F2FC01C2F200010846C5
:1036C0009DED050A9DED032A019101F091FB0498FF
:1036D00001F0DCFB029801F0D9FB019801F0D6FB68
:1036E0000CB080BDCDCCCC3D000000006F12833A01
:1036F000EFF30980BFF36F8F154B1A681EF0100FA0
:1037000008BF20ED108A20E9F04F10602DE9090074
:103710004FF0500080F31188BFF34F8FBFF36F8FCE
:1037200003F06AFC4FF0000080F31188BDE8090047
:1037300019680868B0E8F04F1EF0100F08BFB0EC31
:10374000108A80F30988BFF36F8F704700BF00BFF6
:103750000402002080B544F24000C4F200004FF49F
:1037600080610022FEF7E4F880BD000080B544F2DD
:103770004000C4F200004FF480610222FEF7D8F846
:1037800080BD0000F0B591B0014610900C91FFE7AC
:1037900040F24400C2F2000000680DA94FF0FF3271
:1037A00004F088F89DED0D0A9DED0E1A9DED0F2A8F
:1037B0009FED513A20EE030ABDEEC00A10EE101A3A
:1037C00021EE030ABDEEC00A10EE102A22EE030A13
:1037D000BDEEC00A10EE10EA40F23403C2F200035C
:1037E0001B78B3FA83F35B09EC46CCF80430002372
:1037F000CCF800300B900846114672460A938DEDC6
:10380000093A01F0A5FA0A20089000F0D1FE40F232
:103810008E10C2F20000B0F90010B0F90220B0F929
:10382000040040F2F413C2F20003B3F900C0B3F98C
:1038300002E0B3F904306C460A9D2561E560A5609D
:103840006360C4F800E0079008461146079A634693
:1038500001F006FA089800F0ABFE40F2E400C2F274
:103860000000B0F90010B0F90230B0F90420B0F94E
:1038700006C090F808E040F6B8340EFB04FE457A26
:103880006543867A6643C07A60436C4640F2DC57F3
:103890006761276100B2E06030B2A06028B260606A
:1038A0000FFA8EF020600846614601F055F908983D
:1038B00000F07EFE40F2F800C2F2000090ED000A37
:1038C00030EE000A9DED091A20EE010ABDEEC00A95
:1038D00010EE100A0A9901F01BF9089800F068FE32
:1038E0004EF60450CEF200004FF080510160BFF35D
:1038F0004F8FBFF36F8F4BE70000C84280B582B097
:1039000044F66C00C4F200000021016001900091B7
:10391000FFF72CFF44F66800C4F200000099016034
:1039200000F0E4FE01200199086000F0DFFE00983D
:103930000199086002B080BD80B584B044F66C0087
:10394000C4F200000021016003900291FFF70EFF16
:1039500044F66800C4F2000001210160019100F00A
:10396000C5FE01980399086000F0C0FE0298039913
:10397000086004B080BD000080B584B001468DF8B9
:103980000F0000208DF80D0002910190FFF7E2FE7C
:1039900001988DF80E00FFE79DF80E00072828DC3F
:1039A000FFE744F66C00C4F20000002101600090C3
:1039B00000F09CFE0120009908609DF80D00400079
:1039C0008DF80D0044F66800C4F20000006800287D
:1039D00006D0FFE79DF80D0001308DF80D00FFE7E0
:1039E00000F084FEFFE79DF80E0001308DF80E0018
:1039F000D2E79DF80F00002803D1FFE7FFF79CFFF7
:103A000002E0FFF77BFFFFE79DF80D0004B080BDEB
:103A100080B584B001468DF80F000291FFF7A6FE35
:103A200044F66C00C4F20000002101608DF80E1015
:103A3000FFE79DF80E00072824DCFFE79DF80F0044
:103A4000C00944F66801C4F2000108609DF80F0047
:103A500040008DF80F0000F049FE44F66C00C4F2FF
:103A6000000001210160019000F040FE002001995A
:103A7000086000F03BFEFFE79DF80E0001308DF876
:103A80000E00D6E704B080BD80B584B0FFF76EFEAF
:103A900044F6680EC4F2000E0120CEF8000044F691
:103AA0006C01C4F200010860CDF80CE0029100F056
:103AB0001DFE002003990860019000F017FE019898
:103AC0000299086004B080BD80B582B0FFF74EFE59
:103AD00044F66C0EC4F2000E0020CEF8000044F64E
:103AE0006801C4F200010860CDF804E0009100F024
:103AF000FDFD012001990860DDF800E0CEF800002E
:103B000000F0F4FD02B080BD80B582B0FFF722FE68
:103B100044F6680EC4F2000E0120CEF800000090BA
:103B200000F0E4FD44F66C00C4F20000DDF800E0B3
:103B3000C0F800E000F0DAFDFFE744F66800C4F2E8
:103B400000000068002813D0FFE7BDF80400013032
:103B5000ADF80400BDF80400B0F57A7F07DDFFE79B
:103B6000FFF7B2FF4FF0010E8DF807E009E0E4E740
:103B700044F66C00C4F20000002101608DF80710CB
:103B8000FFE79DF8070002B080BD000070B58EB061
:103B9000DDF848C09E4614460D4606460D900C9131
:103BA0000B920A930020099006900D98016E21F067
:103BB000010101660A982028CDF814C0CDF810E064
:103BC00003940295019603D1FFE700200A90FFE7D6
:103BD000FDF738F907900C98002840F0A181FFE725
:103BE0000D98002181600C980A9940EA01200B99F8
:103BF000084340F001000D99086012980799884227
:103C000043D3FFE70D9841F20001C4F20601884258
:103C10000AD1FFE740F21820C4F200000168022236
:103C200062F3051101602FE00D9842F20001C4F229
:103C3000060188420AD1FFE740F21820C4F20000D2
:103C40000168022262F3871101601CE00D9843F2C3
:103C50000001C4F2060188420AD1FFE740F21820B1
:103C6000C4F200000168022262F38B21016009E0C6
:103C700040F21820C4F200000168022262F30D3104
:103C80000160FFE7FFE7FFE7FFE70D9841F2000162
:103C9000C4F20601884234D1FFE740F21820C4F292
:103CA0000000006810F0300F06D1FFE741F6003049
:103CB000C0F2B700099023E040F21820C4F20000DF
:103CC000006800F03000102804D1FFE7FDF79EF9EE
:103CD000099014E040F21820C4F20000006800F0DF
:103CE0003000202804D1FFE7FDF724F9099005E012
:103CF00041F60030C0F2B7000990FFE7FFE7FFE7A9
:103D0000B1E00D9842F20001C4F20601884234D1BC
:103D1000FFE740F21820C4F20000006810F0C00F66
:103D200006D1FFE741F60030C0F2B700099023E06A
:103D300040F21820C4F20000006800F0C0004028E3
:103D400004D1FFE7FDF762F9099014E040F2182072
:103D5000C4F20000006800F0C000802804D1FFE732
:103D6000FDF77AF8099005E041F60030C0F2B7009F
:103D70000990FFE7FFE7FFE774E00D9843F20001C9
:103D8000C4F20601884236D1FFE740F21820C4F29F
:103D90000000006810F4406F06D1FFE741F60030E4
:103DA000C0F2B700099025E040F21820C4F20000EC
:103DB000006800F44060B0F5806F04D1FFE7FDF7C4
:103DC00025F9099015E040F21820C4F200000068BF
:103DD00000F44060B0F5006F04D1FFE7FDF7AAF8EA
:103DE000099005E041F60030C0F2B7000990FFE706
:103DF000FFE7FFE735E040F21820C4F2000000685A
:103E000010F4405F06D1FFE741F60030C0F2B70082
:103E1000099025E040F21820C4F20000006800F488
:103E20004050B0F5805F04D1FFE7FDF7EFF809904F
:103E300015E040F21820C4F20000006800F4405081
:103E4000B0F5005F04D1FFE7FDF706F8099005E043
:103E500041F60030C0F2B7000990FFE7FFE7FFE747
:103E6000FFE7FFE7FFE712980799884206D3FFE7CD
:103E70000D98002141600998069050E01298099928
:103E8000884206D3FFE70D9800214160099806900B
:103E900044E0129800280AD1FFE70D98416840F2EB
:103EA000FF12114341600998000A069035E0099815
:103EB00000EB800040001299B0FBF1F005304CF6A9
:103EC000CD41CCF6CC41A0FB01014FF0FF3202EB1B
:103ED000D10108910899B1F5807F00900CD3FFE7DC
:103EE000FF2008900D98416840F2FF121143416095
:103EF0000998000A06900FE00D98406840F2FF1103
:103F00008843089908430D99486009980899013138
:103F1000B0FBF1F00690FFE7FFE7FFE7FFE75DE0AA
:103F20000D98002181600C980A9A40EA02200B9AB1
:103F3000104340F001000D9A10600D9841600D98FB
:103F400041F20001C4F2060188420DD1FFE740F2C0
:103F50001820C4F200000168022262F3051101601A
:103F6000FCF7E8FF069038E00D9842F20001C4F239
:103F7000060188420DD1FFE740F21820C4F200008C
:103F80000168022262F387110160FCF765FF069069
:103F900022E00D9843F20001C4F2060188420DD1DF
:103FA000FFE740F21820C4F200000168022262F329
:103FB0008B210160FCF7BEFF06900CE040F2182058
:103FC000C4F200000168022262F30D310160FCF7C7
:103FD00043FF0690FFE7FFE7FFE7FFE706980EB015
:103FE00070BD000084B00A46034603908DF80B10A4
:103FF00001920093FFE703984069C007002801D0B1
:10400000FFE7F8E79DF80B0041F22001C4F206013A
:104010000860FFE703984069C007002801D0FFE768
:10402000F8E741F23000C4F206000068C0B204B004
:1040300070470000000000000000000000000000C9
:10404000074B19680868B0E8F04F80F30988BFF3A0
:104050006F8F4FF0000080F31188704700BF00BFE2
:104060000402002040F20010C4F2000000210160B0
:104070007047000040F20010C4F20000002101600F
:104080007047000040F20010C4F2000000210160FF
:1040900070470000FFE740F20010C4F20000592111
:1040A00001601621016088210160FFE740F20010E5
:1040B000C4F2000000680028EDD0FFE77047000060
:1040C000FFE740F20010C4F2000059210160162100
:1040D000016088210160FFE740F20010C4F2000097
:1040E00000680028EDD0FFE770470000FFE740F2CE
:1040F0000010C4F2000059210160162101608821DE
:104100000160FFE740F20010C4F2000000680028E0
:10411000EDD0FFE77047000080B582B00146019006
:104120000198009100F002F802B080BD82B0014613
:1041300001900091FFE71820C4F207000068000218
:10414000002801D5FFE7F6E701980021C4F2070136
:10415000086001980A2810D1FFE7FFE71820C4F291
:10416000070000680002002801D5FFE7F6E70020FD
:10417000C4F207000D210160FFE702B070470000A4
:1041800080B584B0FFF786FF4FF0010E7046CDF882
:104190000CE0FCF749FE0398FDF7CEF84BF2000E59
:1041A000C0F6713E02907046FCF794FF019000F05B
:1041B00017F8FFF757FF04B080BD000080B503F08B
:1041C0006BFD012803D0FFE703F04CF807E040F255
:1041D000B840C2F20000016801310160FFE780BD14
:1041E00080B584B0FCF712FF40F2080EC2F2000E58
:1041F000CEF8000040F21020C4F20000006800F089
:10420000070002900298022807D1FFE740F2080059
:10421000C2F200000068039008E0029840F210012A
:10422000C2F2000151F820000390FFE740F2202085
:10423000C4F20000006800F00F0001300190039804
:104240000199B0FBF1F040F20C01C2F200010860EC
:1042500008684AF22011C0F2070108444DF6836154
:10426000C4F21B31A0FB0101890C40F20402C2F22E
:1042700000021160009004B080BD000080B54EF6D1
:104280008850CEF20000016841F4700101604CF2E8
:104290004C00C4F200000168082262F303010160CF
:1042A00040F29820C4F20000016841F480210160CE
:1042B00040F20820C4F20000016841F002010160F0
:1042C00041F20411C4F204010A6822F008320A60C3
:1042D00041F20811C4F204010A6822F008320A60AF
:1042E000016821F002010160FDF73EFC44F240004C
:1042F000C4F200001E210222FDF74CFB44F64400EC
:10430000C4F200000021016044F64800C4F200003D
:10431000016044F64C00C4F20000016044F6500015
:10432000C4F20000016080BD0820C4F205000168ED
:1043300041F0010101607047F0B591B0DDF858C05F
:104340009E4614460D46064610900F910E920D9310
:1043500000200C900B9049F63C01C0F200010A6865
:104360004B688F68C9680A9109970893079206906D
:1043700010980021C4F207018842CDF814C0CDF88E
:1043800010E003940295019611D1FFE740F214204A
:10439000C4F200000068C0F301600C9040F22020DD
:1043A000C4F200000068C0F303200B9080E0109876
:1043B00041F20001C4F20701884211D1FFE740F247
:1043C0001420C4F200000068C0F381600C9040F239
:1043D0002020C4F20000006880B2000B0B9066E061
:1043E000109842F20001C4F20701884211D1FFE7A0
:1043F00040F21C20C4F200000068C0F301600C9081
:1044000040F23020C4F20000006800F00F000B9072
:104410004CE0109843F20001C4F20701884211D128
:10442000FFE740F21C20C4F200000068C0F3816086
:104430000C9040F23020C4F200000068C0B20009C5
:104440000B9032E0109844F20001C4F20701884258
:1044500011D1FFE740F21C20C4F200000068C0F355
:1044600001700C9040F23020C4F200000068C0F3EC
:1044700003200B9018E0109845F20001C4F20701E8
:10448000884210D1FFE740F21C20C4F2000000680F
:10449000800F0C9040F23020C4F20000006880B21F
:1044A000000B0B90FFE7FFE7FFE7FFE7FFE7FFE702
:1044B0000C98012808D1FFE7FCF7A8FDDDF830E0F3
:1044C00007A941F82E0000E0FFE70F9800282FD041
:1044D000FFE70C9807A951F820000B990131B0FBB8
:1044E000F1F00F9900EB5100B0FBF1F002380690AB
:1044F0000698B0F5803F14D3FFE70C9807A951F850
:1045000020000B990131B0FBF1F00F9900EBC100D5
:10451000B0FBF1F06FF0010101EB1010109948624F
:1045200005E0069840F0405010994862FFE7FFE729
:104530000E980D990843169908431099C86011B058
:10454000F0BD000080B584B04EF21000CEF2000045
:104550000021016002900191FFF7B2FD0198FCF784
:10456000DBFEFFF787FD40F2A410C2F200000C2131
:104570000160039103984FF47A714843039040F22D
:10458000A010C2F20000012101800298016841F0F0
:104590000201016003994EF2140ECEF2000ECEF825
:1045A0000010016841F00101016004B080BD00000D
:1045B00080B582B001460190009103F06DFB0128A7
:1045C00020D0FFE7019840F2A011C2F20001098853
:1045D00088420BD3FFE7019840F2A011C2F200011C
:1045E0000988B0FBF1F002F08FFAFFE740F2A0106B
:1045F000C2F2000000880199B1FBF0F202FB10103A
:104600000190FFE701984FF47A71484300F002F8F7
:1046100002B080BD87B001460690002002904EF2A5
:104620001400CEF2000000680190069840F2A41237
:10463000C2F200021268504305904EF21800CEF20A
:104640000000006804900091FFE74EF21800CEF2DF
:104650000000006803900398049988421ED0FFE789
:1046600003980499884207D2FFE704980399401AF7
:1046700002990844029008E001980399401A0499AD
:104680000844029908440290FFE7039804900298B6
:104690000599884201D3FFE701E0FFE7D5E707B0BE
:1046A0007047000080B584B00A460346039002912B
:1046B000039801920093FFF72FFD039804B080BD8B
:1046C00080B582B003F0E8FA012804D0FFE703F0D8
:1046D00001FB019006E040F2B840C2F20000006821
:1046E0000190FFE7019802B080BD000081B000207A
:1046F0008DF80300FFE79DF803000E2807DCFFE7B5
:10470000FFE79DF8030001308DF80300F3E701B0E7
:104710007047000085B0B0EE401A8DED040A9DEDA3
:10472000040AB6EE002A20EE020A8DED030A049870
:10473000029002980190019845F6DF11C5F6377195
:10474000A1EB60000190019802909DED020A9DEDA1
:10475000032A22EE002A22EE002AB7EE083A33EEB0
:10476000422A20EE020A8DED020A9DED020A8DED2D
:10477000001A05B07047000080B58AB0002009908B
:104780000890FFF7FDFC04200790FEF773FCFFF78D
:10479000D9FEFDF7E3FD0720FCF7E8F94FF04040B4
:1047A0004FF0FF324FF000530899FCF7E9FD4FF44A
:1047B000E13001F01DFFFCF7D7FF40F2A810C2F274
:1047C0000000382106900591FBF77EFD40F2E400E1
:1047D000C2F20000089981604160016008460699B4
:1047E000059AFCF7C5FF08980699059AFCF7C0FFE3
:1047F000FEF70CF80798FEF78BF8FCF743F99FEDEE
:10480000120AF2EE040AFCF7E3FDFDF7C7FD40F2E1
:10481000F401C2F200016A4651600121116046F2C2
:104820004D41C0F2000149F6C202C0F20002C823A5
:104830000490084611461A46089B03F0D3F90390EA
:1048400002F070FBFFE7FEE76F12833A8AB0B0EE2A
:10485000423AB0EE614AB0EE415AB0EE606AB0EE54
:10486000407A8DED090ACDED080A8DED071ACDEDE0
:10487000061A8DED052A9DED090A9DED071A9DED9D
:10488000082A31EE421A80EE010A9DED051A9DEDCF
:10489000062A31EE421A20EE010A30EE020A8DEDB0
:1048A000043A8DED034A8DED025A8DED016A8DEDCE
:1048B000007A0AB07047000080B592B013468C466B
:1048C00086468DF8470010918DF83F209DF83F00F7
:1048D0001B280593CDF810C0CDF80CE001DBFFE7F5
:1048E00066E000200E900D900C900B900A900990BD
:1048F000089007909DF83F008DF81C009DF8470038
:104900008DF81D0007A8023010999DF83F20FBF795
:10491000C2FC41F20001C4F203010A6842F0010244
:104920000A600290FFE741F20800C4F203004FF072
:10493000FF31016041F20000C4F20300016841F060
:1049400002010160FFE700208DF81B00FFE79DF8E2
:104950001B00062811DCFFE79DF81B0007A951F892
:10496000200041F20401C4F203010860FFE79DF852
:104970001B0001308DF81B00E9E741F20C00C4F286
:10498000030000680E9041F20000C4F203000168C9
:1049900021F00101016040F26C00C2F200000068E9
:1049A00007A94FF0FF32002302F036FD0190FFE728
:1049B00012B080BD80B58AB0014609900998C079CF
:1049C0008DF810000998C0888DF811000998407A78
:1049D0008DF81200099800898DF813000998C07AA3
:1049E0008DF81400099840898DF8150009984078D1
:1049F0008DF81600099800888DF817000998C0787E
:104A00008DF81800099840888DF8190009984079A8
:104A10008DF81A00099880888DF81B000998407B52
:104A20008DF81C00099880898DF81D000998C07BBD
:104A30008DF81E000998C0898DF81F000998407CE8
:104A40008DF820000998008A8DF82100102004AA12
:104A500012230391114602921A460193FFF72CFF8D
:104A60000998C07C8DF810000998408A8DF81100D3
:104A70000998407D8DF812000998808A8DF81300FE
:104A80000998C07D8DF814000998C08A8DF815002A
:104A90000998407E8DF816000998008B8DF8170054
:104AA0000998C07E8DF818000998408B8DF8190080
:104AB0000998407F8DF81A000998808B8DF81B00AB
:104AC0000998C07F8DF81C000998C08B8DF81D00D7
:104AD000099890F821008DF81E000998008C8DF837
:104AE0001F00099890F823008DF820000998408C49
:104AF0008DF8210011200299019AFFF7DDFE0020B8
:104B0000ADF8200007900690059004900AB080BD93
:104B100080B584B00A460346ADF80E00ADF80C101F
:104B2000BDF80E008DF808009DF80F008DF8090003
:104B3000BDF80C008DF80A009DF80D008DF80B00F3
:104B4000052002A94FF0040C019262460093FFF782
:104B5000B3FE04B080BD00002DE9F04F8FB0DDF84A
:104B600074C0DDF870E01B9C1A9D199E189F984632
:104B700091468A468346ADF83A00ADF83810ADF854
:104B80003620ADF83430ADF83270ADF83060ADF8A5
:104B90002E50ADF82C40ADF82AE0ADF828C09DF8B5
:104BA0003B008DF81400BDF83A008DF815009DF813
:104BB00039008DF81600BDF838008DF817009DF803
:104BC00037008DF81800BDF836008DF819009DF8F3
:104BD00035008DF81A00BDF834008DF81B009DF8E3
:104BE00033008DF81C00BDF832008DF81D009DF8D3
:104BF00031008DF81E00BDF830008DF81F009DF8C3
:104C00002F008DF82000BDF82E008DF821009DF8B2
:104C10002D008DF82200BDF82C008DF823009DF8A2
:104C20002B008DF82400BDF82A008DF825009DF892
:104C300029008DF82600BDF828008DF827000320F4
:104C400005A91422CDF81080CDF80C90CDF808A05D
:104C5000CDF804B0FFF730FE0FB0BDE8F08F0000D4
:104C60002DE9F0478EB0DDF868C0DDF864E0189CEF
:104C7000179D169E1F46904689468246ADF836001F
:104C8000ADF83410ADF83220ADF83030ADF82E600C
:104C9000ADF82C50ADF82A40ADF828E0ADF826C0AC
:104CA0009DF837008DF81400BDF836008DF815001A
:104CB0009DF835008DF81600BDF834008DF817000A
:104CC0009DF833008DF81800BDF832008DF81900FA
:104CD0009DF831008DF81A00BDF830008DF81B00EA
:104CE0009DF82F008DF81C00BDF82E008DF81D00DA
:104CF0009DF82D008DF81E00BDF82C008DF81F00CA
:104D00009DF82B008DF82000BDF82A008DF82100B9
:104D10009DF829008DF82200BDF828008DF82300A9
:104D20009DF827008DF82400BDF826008DF8250099
:104D3000022005A912220497CDF80C80CDF8089026
:104D4000CDF804A0FFF7B8FD0EB0BDE8F087000075
:104D5000F0B58BB0DDF844C0DDF840E01C461546E8
:104D60000E460746ADF82A00ADF82810ADF826200B
:104D700008938DF81FE08DF81EC09DF82B008DF86C
:104D80001200BDF82A008DF813009DF829008DF857
:104D90001400BDF828008DF815009DF827008DF847
:104DA0001600BDF826008DF817009DF823008DF839
:104DB0001800BDF822008DF819000898000A8DF837
:104DC0001A0008988DF81B009DF81F008DF81C0034
:104DD0009DF81E008DF81D0001200DF112010C221E
:104DE0000394029501960097FFF766FD0BB0F0BDA6
:104DF0008CB0B0EE613AB0EE414AB0EE605AB0EE1F
:104E0000426AB0EE407A0146CDED0B1A8DED0A1ADA
:104E1000CDED090A08908DED070A8DED062A089858
:104E200000224260089882600898C2600898026177
:104E30009DED070A089880ED000A9DED090A089883
:104E400080ED050A9DED0A0A089880ED060A9DEDA1
:104E50000B0A089880ED070A08980023C4F2FA3379
:104E6000C362089802639DED060A089880ED0D0A5A
:104E70008DED053A8DED044A8DED035A8DED026AF4
:104E80008DED017A00910CB07047000082B00146B0
:104E90000190019800224260019882600198C260EE
:104EA00001980261009102B07047000085B0B0EE39
:104EB000401A014604908DED030A9DED030A049803
:104EC00080ED010A049890ED010A90ED032A90ED1F
:104ED0000D3A20EE030A32EE000A80ED030A049830
:104EE00090ED030A90ED0B2AB4EEC20AF1EE10FA2F
:104EF0008DED011A009106DDFFE7049890ED0B0A95
:104F000080ED030A15E0049890ED030A90ED0B1A6A
:104F1000B1EE411AB4EEC10AF1EE10FA08DAFFE779
:104F2000049890ED0B0AB1EE400A80ED030AFFE70A
:104F3000FFE7049890ED010A90ED021A90ED0D2A1A
:104F400030EE410A80EE020A80ED040A049890EDEA
:104F5000010A90ED051A21EE000A80ED080A049876
:104F600090ED030A90ED061A21EE000A80ED090A81
:104F7000049890ED040A90ED071A21EE000A80EDE6
:104F80000A0A049890ED080A90ED091A90ED0A2A91
:104F900030EE010A30EE020A8DED020A049890ED1F
:104FA0000C0AB5EE400AF1EE10FA28D0FFE79DEDAD
:104FB000020A049890ED0C1AB4EEC10AF1EE10FA50
:104FC00006DDFFE7049890ED0C0A8DED020A15E06E
:104FD0009DED020A049890ED0C1AB1EE411AB4EE60
:104FE000C10AF1EE10FA08DAFFE7049890ED0C0A16
:104FF000B1EE400A8DED020AFFE7FFE7FFE70498F4
:1050000090ED010A80ED020A9DED020A05B070479D
:1050100080B586B00A460346059004914CF6CC5004
:10502000C2F200000068029040F20420C2F20000C8
:10503000006804300192009301F010FB002812D1A7
:10504000FFE740F20420C2F200000068C06A0121BC
:1050500001FA00F04CF6D841C2F200010A6822EAD7
:105060000000086000E0FFE705980130002811D13A
:10507000FFE7049800280DD0FFE740F20420C2F2B9
:1050800000000068011D4CF6A450C2F2000001F0BF
:1050900069FB3DE00298059908440390039840F2AB
:1050A0000421C2F20001096848600398029988420D
:1050B0000ED2FFE740F21420C2F20000006840F276
:1050C0000421C2F200010968043101F011FB1EE065
:1050D00040F20C20C2F20000006840F20421C2F24B
:1050E00000010968043101F003FB03984CF63C51C0
:1050F000C2F200010968884207D2FFE703984CF624
:105100003C51C2F20001086000E0FFE7FFE7FFE763
:1051100006B080BD80B584B001460390029101F0D5
:105120004DFB4CF6C440C2F2000001680131016041
:1051300040F20420C2F200000068002813D1FFE70B
:10514000039840F20421C2F2000108604CF6C4400A
:10515000C2F200000068012803D1FFE700F030FB35
:1051600000E0FFE71DE04CF69850C2F20000006836
:10517000002814D1FFE740F20420C2F200000068CA
:10518000C06A0399C96A884207D8FFE7039840F2CA
:105190000421C2F20001086000E0FFE700E0FFE741
:1051A000FFE74CF6D440C2F2000001680131016013
:1051B0000068039948640398C06A012101FA00F06D
:1051C0004CF6D841C2F200010A6810430860039807
:1051D000C16A01EB810140F21C22C2F2000202EB23
:1051E0008101043001900846019901F0BBFA01F0F9
:1051F00015FB4CF69850C2F200000068002819D048
:10520000FFE740F20420C2F200000068C06A039980
:10521000C96A88420CD2FFE74EF60450CEF2000075
:105220004FF080510160BFF34F8FBFF36F8F00E0ED
:10523000FFE700E0FFE704B080BD000080B582B06A
:1052400001F0BCFA4CF6D05EC2F2000EDEF800E0CF
:10525000BEF1000F38D1FFE74CF6DC40C2F200008F
:10526000019001F021FA4CF6F040C2F200000090EB
:1052700001F01AFA40F20820C2F20000DDF804E062
:10528000C0F800E040F21820C2F20000009901606E
:1052900005201021002202F005F84CF6D051C2F290
:1052A00000010860086800280CD0FFE74CF6D050D9
:1052B000C2F20000006849F67911C0F2000101F065
:1052C000B5FB00E0FFE700E0FFE701F0A7FA02B05E
:1052D00080BD000080B582B0FFE74CF6C840C2F246
:1052E0000000006800282CD0FFE701F067FA4CF6B8
:1052F000B85EC2F2000EDEF80CE0DEF80CE0CDF88D
:1053000004E0DDF804E00EF1040001F0A7F94CF62A
:10531000C44EC2F2000EDEF800100139CEF80010C3
:105320004CF6C841C2F20001D1F800E0AEF1010E26
:10533000C1F800E0009001F071FA019800F0AEF8B9
:10534000CBE702B080BD000080B586B00A460346B8
:10535000059004910598006C0028039202931BD0DD
:10536000FFE70598C168026C1144C1600598816827
:10537000C068884204D3FFE705980168C16000E077
:10538000FFE704980599CA68096C01911146019AD2
:10539000FAF781FF0090FFE706B080BD80B58CB0C2
:1053A00013468C4686460B900A910992002008907D
:1053B0000B98806B07900B98006C00280693CDF833
:1053C00014C0CDF810E012D1FFE70B980068002858
:1053D0000BD1FFE70B98806802F072FD08900B98E4
:1053E0004FF0000EC0F808E000E0FFE74EE009983B
:1053F00000281CD1FFE70B980A994268006C0390C3
:105400001046039AFAF747FF0B994A68D1F840E033
:1054100072444A600B994A6889688A42029004D3B0
:10542000FFE70B980168416000E0FFE72DE00B9873
:105430000A99C268006C01901046019AFAF72BFF96
:105440000B99CA68D1F840E0A2EB0E02CA600B9932
:105450000A68C9689142009006D2FFE70B988168FC
:10546000026C891AC16000E0FFE7099802280AD19E
:10547000FFE70798002804D0FFE707980138079056
:1054800000E0FFE700E0FFE7FFE7FFE707980130F4
:105490000B99886308980CB080BD000080B582B07D
:1054A000014601900198006B009101F0E3F9019829
:1054B00001F0E0F902B080BD83B00146029040F2F5
:1054C0000820C2F2000000680068B0FA80F04009CD
:1054D000029A1060029800680028009109D1FFE745
:1054E00040F20820C2F200000068C0680068019025
:1054F00002E000200190FFE7019803B07047000030
:1055000084B04FF44840009040F2BC40C2F200002A
:1055100001909DF804004007002811D0FFE7019892
:1055200007300190019820F007000190019840F2A7
:10553000BC41C2F20001009A081A10440090FFE733
:105540000198029002984CF69C51C2F2000108604A
:10555000002048600299009A11440191019908398C
:105560000191019921F007010191019940F2102266
:10557000C2F2000211601168486011680860029868
:10558000039001980399401A4860106803990860D5
:10559000039840684CF63851C2F200010860039845
:1055A00040684CF63051C2F2000108604CF60450DD
:1055B000C2F200004FF00041016004B070470000EB
:1055C00080B582B0014601900091FFE7FFF782FEAF
:1055D00040F21C2EC2F2000EDEF800E0BEF1020F17
:1055E0000CD3FFE74EF60450CEF200004FF080518E
:1055F0000160BFF34F8FBFF36F8F00E0FFE7E5E778
:1056000070B58AB0DDF838C09E4614460D46064691
:105610000990089107928DF81B3008980028CDF862
:1056200014C0CDF810E003940295019603D1FFE772
:105630000E98006003E007980E990860FFE709984C
:105640000E99C86308980E9908640E98012101F01C
:1056500075FE9DF81B10DDF838E08EF850100E999D
:105660004FF0000EC1F848E000900AB070BD000095
:105670002DE9F04391B0DDF86CC0DDF868E0199CCD
:10568000189D1E4617468846814610900F910E922F
:105690000D931A98006B0E998900A522CDF828C0A9
:1056A000CDF824E00894079506960597CDF810806C
:1056B000CDF80C90FAF701FE1A98006B0E9900EBEA
:1056C000810004380C900C9820F007000C909DF895
:1056D0003000400700280ED0FFE749F64410C0F222
:1056E000000049F66811C0F2000140F2613202F098
:1056F0006DFE0290FFE70F98002820D0FFE7002002
:105700000B90FFE70B980F2814D8FFE70F980B9921
:10571000405C1A9A114481F834000F980B99405656
:10572000002801D1FFE705E0FFE7FFE70B98013014
:105730000B90E7E71A98002180F8431004E01A98CC
:10574000002180F83410FFE71898202803D3FFE7E2
:105750001F20189000E0FFE718981A99C86218985F
:105760001A99C8641A98002101651A9804300191A9
:1057700000F0B4FF1A98183000F0B0FF1A980061DA
:105780001898C0F120001A9988611A9840621A98F6
:10579000019941651A9880F858100C9810990D9A43
:1057A00000F0C2FD1A9908601998002804D0FFE79C
:1057B0001A981999086000E0FFE711B0BDE8F0837E
:1057C00080B584B000200390FFE703981F2810D80D
:1057D000FFE7039800EB800040F21C21C2F20001B9
:1057E00001EB800000F060FFFFE7039801300390B9
:1057F000EBE74CF60850C2F20000029000F054FFB4
:105800004CF61C50C2F20000019000F04DFF4CF627
:105810004450C2F2000000F047FF4CF6B850C2F20C
:10582000000000F041FF4CF6A450C2F2000000F06E
:105830003BFF40F20C20C2F20000DDF808E0C0F8A7
:1058400000E040F21420C2F200000199016004B0AF
:1058500080BD000084B0014603904CF69C50C2F21B
:10586000000002900091FFE70298006803998842C7
:1058700005D2FFE7FFE7029800680290F4E702987C
:10588000019001980299496808440399884209D116
:10589000FFE70398406802994A68104448600298FC
:1058A000039000E0FFE7039801900198039949688D
:1058B000084402990968884220D1FFE702980068ED
:1058C00040F21021C2F20001096888420DD0FFE7C2
:1058D00002980068406803994A681044486002983A
:1058E000006800680399086007E040F21020C2F2E7
:1058F0000000006803990860FFE704E00298006870
:1059000003990860FFE702980399884204D0FFE7F3
:1059100003980299086000E0FFE704B070470000B8
:10592000B0B58AB09C4696460C460546099008914B
:1059300007920693002005900898099948600998F5
:105940000061089807998842CDF810C0CDF80CE0A6
:105950000294019516D8FFE707980699401A09990D
:105960008969884203D3FFE70120059009E040F2EE
:105970001820C2F2000000680999043100F0B8FE56
:10598000FFE717E007980699884208D2FFE70898D2
:105990000699884203D3FFE70120059009E040F211
:1059A0000820C2F2000000680999043100F0A0FE4E
:1059B000FFE7FFE705980AB0B0BD000080B584B0EE
:1059C00001460390019100F0F9FE0398806B0028D6
:1059D00003D1FFE70120029002E000200290FFE7E0
:1059E00000F01CFF029804B080BD000080B584B0B8
:1059F00001460390019100F0E1FE0398806B03994A
:105A0000C96B884203D1FFE70120029002E0002029
:105A10000290FFE700F002FF029804B080BD000092
:105A200080B58AB00A460346099008910998806CAF
:105A300007900020069007980028049203930ED147
:105A4000FFE749F64410C0F2000049F65211C0F2D7
:105A5000000140F6453202F0B9FC0290FFE70798DA
:105A6000806B0799C96B88420ED3FFE749F6441053
:105A7000C0F2000049F65211C0F2000140F6463271
:105A800002F0A4FC0190FFE70798806B0799C96BAF
:105A900088422CD2FFE7079890F845008DF8170050
:105AA0000798089A09A9FFF779FC06909DF9170055
:105AB0000130002813D1FFE70798406A00280CD076
:105AC000FFE70798243002F097FA002803D0FFE799
:105AD0000120069000E0FFE700E0FFE706E09DF808
